:020000040800F2
:100000003017002035020008751B0008211B00086E
:10001000711B00086915000853300008000000003B
:10002000000000000000000000000000B11D0008FA
:100030002518000800000000611C0008191F0008B6
:100040004F0200084F0200084F0200084F0200084C
:100050004F0200084F0200084F0200084F0200083C
:100060004F0200084F0200084F0200084F0200082C
:100070004F0200084F0200084F0200084F0200081C
:100080004F0200084F0200084F0200084F0200080C
:100090004F0200084F0200084F0200084F020008FC
:1000A0004F0200084F0200084F0200084F020008EC
:1000B0004F020008552200084F0200084F020008B6
:1000C0004F0200084F0200084F0200084F020008CC
:1000D0004F020008312E00084F0200084F020008AE
:1000E0004F0200084F0200084F0200084F020008AC
:1000F0004F0200084F0200084F0200084F0200089C
:100100004F0200084F0200084F0200084F0200088B
:100110004F0200084F0200086923000895240008D8
:100120004F0200084F0200084F0200084F0200086B
:1001300000F002F800F06EF80AA090E8000C82448B
:100140008344AAF10107DA4501D100F063F8AFF268
:10015000090EBAE80F0013F0010F18BFFB1A43F0A5
:1001600001031847105E0000305E000010F8013BEC
:100170000A4413F0030408BF10F8014B1D1108BF17
:1001800010F8015B641E05D010F8016B641E01F8C5
:10019000016BF9D1002D15D010F8014B03F00C03C1
:1001A0000C2BA1EB04040ABF10F8013BA4EB831451
:1001B000A4EB032405F1010314F8016B5B1E01F8A5
:1001C000016BF9D5914238BF10F8013BD1D370478C
:1001D0000023002400250026103A28BF78C1FBD850
:1001E000520728BF30C148BF0B607047662905F031
:1001F0007486642900F08080002070471FB500F0ED
:1002000035FB04000020002104F050FEE0601FBD1B
:1002100010B510BD00F046FC1146FFF7EFFF03F0EC
:100220002DFE00F064FC03B4FFF7F2FF03BC02F004
:1002300031FF00000948804709480047FEE7FEE714
:10024000FEE7FEE7FEE7FEE7FEE7FEE7FEE7FEE786
:1002500004480549054A064B704700001D1F000869
:100260003101000830050020301700203007002041
:1002700030070020704700000FB4044910B503AAEE
:10028000029800F0E1FA10BC5DF814FB3000002089
:100290002DE9F0410E460446002020622046E16828
:1002A000884730B3252805D0D4E901219047206A3A
:1002B000401CF2E7E168204600278847050018D077
:1002C000A5F14100192802D820354FF400673246C5
:1002D000294620462760FFF789FF40B1012804D056
:1002E000F61D26F007060836D8E7361DD6E728465D
:1002F000DAE7206ABDE8F0812DE9F04106460024E6
:1003000010687529314616A510D0AFF3008000287B
:1003100002DA404213A507E031688A0701D512A529
:1003200002E0490704D511A5012401E0AFF30080E4
:1003300000210A2206F1240709E0B0FBF2FCB0FB21
:10034000F2F302FB1C00303078541846491C002898
:10035000F3D123462A463046BDE8F04100F00CB800
:10036000000000002D0000002B0000002000000015
:1003700070477047704770472DE9F0470D46994622
:100380009246044600F124080168880604D5E06915
:1003900021F01001216000E00120A84201DD471B8F
:1003A00000E00027A1697A1902EB0900081AA06190
:1003B0002078C00602D42046AFF30080002608E073
:1003C000D4E901211AF806009047206A401C761CE7
:1003D00020624E45F4DB2078C0060AD52046AFF3F4
:1003E000008006E0D4E9012130209047206A401CBB
:1003F0002062381EA7F10107F4DC07E0D4E90121EF
:1004000018F805009047206A401C2062281EA5F1BC
:100410000105F3DC2046AFF300802078000602D50A
:100420000220BDE8F0870120FBE770472DE9FF4F70
:100430000C461E464FF0FF378BB0D2E90001DDF8C5
:1004400060800A908A46C1F30A5505B93D460021ED
:1004500008464FF00000BAF1000F00F4400005DA42
:1004600000EB80004FF4400101EA50004FEA905940
:10047000B9F1010F00DDB9460A9850EA4A000ED0E2
:1004800044F61050A5F2FF3545432F14B8F1000F84
:100490001ED07542291E1EDDC9F100021CE0B8F114
:1004A000010F4FF0000001D0302103E0F24305E0DE
:1004B0002154401CB042FBDB304600220021215475
:1004C0000B99C1F80880C1E900200FB0BDE8F08F9A
:1004D000BD1B6D1CDEE74A4600DA694206A800F043
:1004E00067FA06AB93E8070003AB83E807005046C2
:1004F0000A9900F045FB8DE80700A0F500501F3871
:1005000000900398002D0ADD42F21F014A4608447C
:10051000002303A90390684600F0AEFD09E0A0F5B2
:1005200000504A461F38002303A90390684600F094
:10053000B8FD8DE807000004000C03D04FF0FF3039
:10054000410800E01046B8F1000F03D000220092ED
:1005500015461EE0751E05D400F08CF93032625548
:100560006D1EF9D5B3460122084302D000227F1C3C
:1005700004E02078302801D100227F1E002A09974C
:1005800084D01DE0112D07DA00F074F93032625585
:100590006D1C50EA0102F5D1084302D00098C8B1A1
:1005A0000EE00021681E05E0235C625C6354225467
:1005B000401E491C8142F7DBAB46A81B401E099038
:1005C000002004F80B000B98099AC0F80880C0E9D5
:1005D000002B7AE711264FF0000857E72DE9F04F7E
:1005E00088460446D21D22F0070191B0D1E90001EE
:1005F000CDE90A0102F03AFD02460B98C00F01D086
:100600002D2007E02068810701D52B2002E0202162
:1006100001EAC000032A099001D0072A05DB03463E
:100620004146204600F084F90BE12078800601D590
:10063000E06900E00620B8F1650F814606D0B8F108
:10064000660F18D0B8F1670F70D131E00020B9F112
:10065000110F009001DB112301E009F101030AAA47
:1006600001A90CA8FFF7E2FEDDE90C70002609F1F4
:100670000105834647E001204B4600904FF00047BC
:100680000AAA01A90CA8FFF7D1FEDDE90DB00C996B
:100690005D46002610B909F101000D18B9EB0500FF
:1006A00003D4C0F1FF3609F10105A5EB09002BE0E9
:1006B000B9F1010F01DA4FF001090020B9F1110F72
:1006C0000090484601DD112300E003460AAA01A973
:1006D0000CA8FFF7ABFEDDE90C704D460026834603
:1006E000207800070AD4AB4500DA5D4601A8012D49
:1006F00004DD411911F8011C302907D04F4502DAF9
:1007000017F1040F04DA012082460FE06D1EEEE7B8
:10071000002F02DCED1B3E4403E0781CA84200DD04
:100720007D1CB81B00F1010A4FF00047207800073C
:1007300003D4AA4501DB4FF0FF3A0021B7F1004F87
:100740000DF143088DF8431024D002202B23002FF5
:1007500001DA7F422D230A21021EA0F1010000DCF4
:100760005FB197FBF1FC97FBF1F201FB1C7C174694
:100770000CF1300C08F801CDEEE7A8F10100037090
:100780002188090501D5452100E06521A0F1010876
:1007900000F8011C09980FA9A1EB0807FF1D00B183
:1007A0000120411901EBEA70A1693844081A401E82
:1007B000A0612078C00602D42046AFF300800998DB
:1007C00028B1D4E901219047206A401C206220789A
:1007D000C00622D52046AFF300801EE0002E04DBC9
:1007E000B34502DD01A8805D00E03020D4E901219D
:1007F0009047206A401C2062761CAAF101005FEA43
:10080000000A0AD100F032F8C0680168405CD4E9FF
:1008100001219047206A401C2062281EA5F1010595
:10082000DCDC07E0D4E9012118F8010B9047206ACD
:10083000401C2062381EA7F10107F3DC2046AFF30D
:100840000080032011B041E6074B70B50D467B4494
:1008500000F05BF80446284600F01CF910B14FF098
:10086000FF3070BD204670BDD3280000004870479F
:10087000EC04002030B5B0F10A024FEA900E71F19D
:1008800000034EEA817EB0EB0E0061EB91014FEA6E
:10089000101E4EEA017E10EB0E0041EB11114FEAE3
:1008A000102E4EEA016E10EB0E0041EB11214FEAC3
:1008B000104E4EEA014E10EB0E0041EB1141401874
:1008C00041F100014FEAD00040EA41704FEAD10106
:1008D00010EB80054FEA810444EA907444EB010474
:1008E0006D1944EB0404521BA3414FF0000348BFB1
:1008F0000A3200D530BD401C41F1000130BD00007E
:1009000001694A1C02610878704700B58FB0CDE9D3
:1009100001310021059105497944CDE903101146C3
:100920006846FFF7B5FC0FB000BD0000E5FFFFFF14
:100930002DE9F0411F46044603260168072A01F409
:10094000006004DB08B116A505E016A503E008B1B8
:1009500015A500E015A521F010002060A069C01EBB
:10096000A0610FB1401EA0612046AFF300804FB1DF
:10097000D4E9012138469047206A401C2062C01CFF
:10098000206206E0206AFAE7D4E9012115F8010B9C
:100990009047761EF8D22046AFF30080BDE8F08184
:1009A0004E414E006E616E00494E4600696E660013
:1009B0002DE9F047814616468AB0354878440DC87F
:1009C0008DE80D0032487844801C03AC0DC884E8E3
:1009D0000D0041F69B300844372190FBF1F290FB6B
:1009E000F1F5A5F1800501FB12041B3C02D5644220
:1009F000012000E00020DFF898A080460027FA449C
:100A0000AAF1BE0A0EE0E0070AD03246684607EBBC
:100A1000470101230AEB810100F043FB8DE8070049
:100A200064107F1C002CEED1194F7F44AE3F19E0BB
:100A3000E80715D007EB04100DF1180A90E80E0036
:100A40008AE80E00C068F04201D198190890324639
:100A5000012306A903A800F024FB03AB83E80700E9
:100A60006D10641C002DE3D14FF00103324669463E
:100A7000B8F1000F03A802D000F0FEFA01E000F088
:100A800010FBC9E90001C9F808200AB0BDE8F087E9
:100A90009C550000007B00F08000704700487047C4
:100AA000CC0400207546FFF7F9FFAE460500694605
:100AB000534620F00700854618B020B5FFF7C8FB65
:100AC000BDE820404FF000064FF000074FF000084F
:100AD0004FF0000B21F00701AC46ACE8C009ACE8D0
:100AE000C009ACE8C009ACE8C0098D46704710B534
:100AF0000446AFF300802046BDE81040FFF793BBEB
:100B00004FF0013C50F8042B51F8043B9A4221D19C
:100B1000A2EB0C03934313EACC1317D150F8042B28
:100B200051F8043B9A4215D1A2EB0C03934313EA0C
:100B3000CC130BD150F8042B51F8043B9A4209D145
:100B4000A2EB0C03934313EACC13DBD04FF000006D
:100B5000704700BFD01A01BAB1FA81F101F0180153
:100B600022FA01F0CB40C1F12001DBB2C0B2C01AC1
:100B70002CFA01F3D11A914311EAC311E6D170475F
:100B80005FEA400C08BF91F0000F4FEA8C234FEA58
:100B9000C12243EA51514FEA1C5018BF00F5F04002
:100BA0004FEA300018BF41F000415FEA6C5C00F092
:100BB0002980BCF1FF3F08BF40F080407047130C14
:100BC00006BF12044FF0100C4FF0000C130E04BFC0
:100BD00012020CF1080C130F04BF12010CF1040CEB
:100BE000930F04BF92000CF1020CD30F04BF52000C
:100BF0000CF1010C11464FF00002A0F11F00A0EB18
:100C00000C00704711F0004F08BF704731F00041F1
:100C10003FF4D5AF0B0C06BF09044FF0100C4FF09A
:100C2000000C0B0E04BF09020CF1080C0B0F04BFE3
:100C300009010CF1040C8B0F04BF89000CF1020CAC
:100C4000CB0F04BF49000CF1010CCCF12003A0EB49
:100C50000C0022FA03F302FA0CF241EA030100F15C
:100C60000100704720F07F4C80EA030023F07F47AB
:100C7000ACEB070303F57C5300F0004003F1FF03E6
:100C80002DE980494FEA154B09B44FEA144325EA90
:100C90000B4E24EA03480FF2042606EB13274908FB
:100CA0003E785FEA320203FB0667C7F5000707FBE1
:100CB00006F64FEA54374FEAD64606F1020607FB1E
:100CC000066CCCF1005C4FEA1C472CEA074C07FB92
:100CD00006F40CFB06F504EB15464FEA961634BFF6
:100CE00000204FF000404FEAD13706FB07FC4FEAE7
:100CF0001C4C0CFB0BF7D21B03FB0CF761EB070141
:100D00000CFB0EF7B0EB074072EB17420CFB08F739
:100D100034BFA2EB0742B2EB074261EB17414FEA47
:100D20000C444FEA910706FB07FC4FEA1C4C0CFBF6
:100D30000BF7B0EBC74072EB573203FB0CF734BF35
:100D4000A2EBC742B2EBC74261EB57310CFB0EF787
:100D5000B0EBC70072EB57720CFB08F734BFA2EB85
:100D6000C702B2EBC70261EB5771039F4FEA816183
:100D700041EA921104EBCC044FEAD1374FEA826288
:100D800006FB07FC42EA90124FEA80604FEA1C4CD7
:100D90000CFB0BF7D21B03FB0CF761EB07010CFB01
:100DA0000EF7B0EB074072EB17420CFB08F734BFAD
:100DB000A2EB0742B2EB074261EB17414FEA8C55B9
:100DC0004FEA910704EB9C2406FB07FC4FEA1C4CFE
:100DD0000CFB0BF7B0EBC74072EB573203FB0CF781
:100DE00034BFA2EBC742B2EBC74261EB57310CFBF9
:100DF0000EF7B0EBC70072EB57720CFB08F734BF6D
:100E0000A2EBC702B2EBC70261EB577115EB4C25A1
:100E10004FEA816141EA92114FEA82624FEAD1378B
:100E200042EA901206FB07FC44F100044FEA80609E
:100E30004FEA1C4C0CFB0BF7D21B03FB0CF761EBCE
:100E400007010CFB0EF7B0EB074072EB17420CFBEF
:100E500008F734BFA2EB0742B2EB074261EB174140
:100E600015EB1C154FEA813141EA92414FEA82327B
:100E700042EA90424FEA80304FEA0C7644F1000497
:100E800048EA03434EEA0B484FF0000EB2EB080C61
:100E900071EB030724BF624639464EEB0E0E4FF04E
:100EA000000B0018524149414BEB0B0BB2EB080C05
:100EB00071EB03077BF1000B24BF624639464EEB12
:100EC0000E0E4FF0000B0018524149414BEB0B0B3B
:100ED000B2EB080C71EB03077BF1000B24BF6246F9
:100EE00039464EEB0E0E51EA020718BF46F00106D6
:100EF00016EB0E7655F1000254F1000103D5BDE862
:100F00008901BDE80088BDE88901BDE80048B6193F
:100F1000524141EB0101A3F10103704780807F7EC4
:100F20007D7C7B7A7978777676757473727171705F
:100F30006F6E6E6D6C6C6B6A6A6968686766666511
:100F40006464636362616160605F5F5E5E5D5D5C9F
:100F50005C5B5B5A5A595958585757565655555510
:100F60005454535352525251515050504F4F4F4E70
:100F70004E4D4D4D4C4C4C4B4B4B4A4A4A494949BE
:100F80004848484747474746464645454544444400
:100F9000444343434342424242414141002B9C4629
:100FA00030D477002BD01CB54FEA370703B44FF08D
:100FB00010004FF01001BAF1000F06D0BCF1000F85
:100FC000DCBF40F0080040F008014FF000000FBC0B
:100FD000BDE810400BF1010BBBF1010F08BF5FEA48
:100FE000170722BF12F1010211F101014FF0004178
:100FF00043F1000300F0004043EA00007047F9D3DA
:101000005708D0E746EA064613F1400F4FEA164666
:101010001FDD13F1200FDFBF16430A4600212033E6
:101020005B42BED0C3F1200746EA064602FA07F744
:101030004FEA164646EA0706C3F1200722FA03F2F2
:1010400001FA07F721FA03F14FF0000342EA070221
:10105000A7E746EA020646EA06464FEA164646EA89
:101060000106BCBF46EA0646360C4FF000034FF0BF
:1010700000024FF0000194E72DE9804C9A46934618
:1010800070B491E8380007C831EA400C48BF34EA30
:10109000430C03D5FFF7E6FDFFF780FFF0BCBDE88A
:1010A000008C2DE9804C9A46934670B491E8380044
:1010B00007C810F0804F08BF13F0804F03D100F035
:1010C00005F8FFF76BFFF0BCBDE8008C20F07F4710
:1010D00080EA030023F07F4C07EB0C03A3F57C535D
:1010E00000F00040A3F1FE0392F0000F00F0B38087
:1010F00095F0000F00F077802DE901494FEA11408B
:101100004FEA144621EA004800FB06FC24EA0647A1
:1011100008FB06F607FB08F800FB07F718EB064884
:101120004CEB164C4FEA124B18EB07484FEA1546AA
:101130004CEB174022EA0B4E0BFB06FC25EA064758
:101140000EFB06F607FB0EFE0BFB07F71EEB064E2B
:101150004CEB164C4FF000061EEB074E4CEB174BBA
:1011600018EB0B0840F1000018EB0E0B58EB0008D1
:1011700040F100008F1A4FF000013CBFC943661BCD
:1011800014BFB5EB040C00213CBFC943F61B4FEA6A
:1011900017444EEA8E0E27EA04454FEA1C4704FB2B
:1011A00007622CEA074C05FB07F70CFB05F604FB6E
:1011B0000CFC16EB074642EB174216EB0C4642EBD3
:1011C0001C421BEB060658EB0202414146EA9E0612
:1011D00001D5BDE80189B619524141EB0101A3F1E6
:1011E0000103BDE801894FEA14454FEA114724EA9B
:1011F000054621EA074C05FB07F406FB07F70CFB45
:1012000006F105FB0CFC11EB074144EB17444FEAD8
:10121000124711EB0C4144EB1C4422EA074C05FB3E
:1012200007F206FB07F70CFB06F605FB0CFC16EBBA
:10123000074642EB174216EB0C4642EB1C456A1878
:1012400054F1000148BF7047B619524141EB01010A
:10125000A3F10103704795F0000F37D04FEA114218
:101260004FEA144721EA024624EA074C02FB07F141
:1012700006FB07F70CFB06F402FB0CFC14EB07441F
:1012800041EB17414FEA154714EB0C4441EB1C416D
:1012900025EA074C02FB07F506FB07F70CFB06F6F1
:1012A00002FB0CFC16EB074645EB174516EB0C460C
:1012B00045EB1C42121951F1000148BF7047B619A5
:1012C000524141EB0101A3F1010370474FEA14457C
:1012D0004FEA114724EA054621EA074C05FB07F1CE
:1012E00006FB07F70CFB06F24FF0000605FB0CFCB3
:1012F00012EB074241EB174112EB0C4251EB1C4140
:1013000048BF7047921841EB0101A3F101037047F8
:1013100021B1826842F00102826003E0826822F01B
:1013200001028260704721B1826842F4807282605B
:1013300003E0826822F480728260704701460020D8
:101340008A6802F004020AB1012000E00020704720
:10135000014600208A6802F008020AB1012000E07C
:101360000020704730B502460020002350680F4C23
:1013700020400D790C6844EA0524204350609068B1
:101380000B4C2040D1E902542C434D7944EA4504EA
:1013900020439060D06A20F470000C7C641EE4B29C
:1013A000234340EA0350D06230BD0000FFFEF0FF4F
:1013B000FDF7F1FFF0B504460D4600200021092D90
:1013C00011DDE068A5F10A0606EB4607072606FAD6
:1013D00007F18843A5F10A0606EB460603FA06F173
:1013E0000843E0600CE0206905EB4507072606FA94
:1013F00007F1884305EB450603FA06F1084320612F
:10140000072A0FDA606B561E06EB86071F2606FAC0
:1014100007F18843561E06EB860605FA06F10843D7
:10142000606322E00D2A0FDA206BD61F06EB8607D9
:101430001F2606FA07F18843D61F06EB860605FA33
:1014400006F10843206310E0E06AA2F10D0606EB06
:1014500086071F2606FA07F18843A2F10D0606EB60
:10146000860605FA06F10843E062F0BD816841F0A6
:1014700008018160704721B1826842F4A002826055
:1014800003E0826822F4A00282607047816841F024
:10149000040181607047000008B50121102000F0B0
:1014A0000DFC0F20ADF8000000208DF80300694608
:1014B000014800F003FA08BD0010014010B5FFF725
:1014C000EBFF00F023F910BD08B50121082000F062
:1014D000F5FB4FF48040ADF8000010208DF80300BC
:1014E00003208DF802006946044800F0E7F94FF444
:1014F0008041024800F0BFFA08BD0000000C014026
:1015000008B501212C2000F0D9FB8020ADF80000A7
:1015100010208DF8030003208DF8020069460F4863
:1015200000F0CCF94FF48070ADF8000069460C482B
:1015300000F0C4F94FF40060ADF8000069460848B7
:1015400000F0BCF92020ADF800006946054800F025
:10155000B5F98021014800F08EFA08BD0014014061
:1015600000080140000C014000BFFEE721B1026805
:1015700042F00102026004E002684FF6FE731A4076
:101580000260704701684FF6FE7211400160002151
:10159000016041608160C1604B49884208D14A497D
:1015A0000839496841F00F01474A083A51608AE01A
:1015B00045491431884208D143490839496841F006
:1015C000F001414A083A51607DE03F4928318842A4
:1015D00008D13D490839496841F470613A4A083AEE
:1015E000516070E038493C31884208D136490839A9
:1015F000496841F47041344A083A516063E0324925
:101600005031884208D130490839496841F4702185
:101610002D4A083A516056E02B496431884208D17E
:1016200029490839496841F47001274A083A51604C
:1016300049E025497831884208D123490839496869
:1016400041F07061204A083A51603CE01F498842ED
:1016500006D1011F096841F00F01021F116032E03D
:101660001A491431884208D11849091F096841F004
:10167000F001164A121F116025E0144928318842F2
:1016800008D11249091F096841F470610F4A121FFD
:10169000116018E00D493C31884208D10B49091FFF
:1016A000096841F47041094A121F11600BE00749B3
:1016B0005031884207D10549091F096841F470215A
:1016C000024A121F116070470800024008040240DD
:1016D00010B50022026847F6F0739A430C6A8B68D3
:1016E00023430C6923434C6923438C692343CC690E
:1016F00023434C6A23438C6A23431A430260CB681A
:1017000043600B6883604B68C36010BD00B591B047
:101710000121084600F0B2FA0121480200F0CEFA99
:101720003D48FFF72FFF3D4806903D4807900020B9
:1017300008900420099000200A9080200B9040001F
:101740000C9080000D9020200E9000020F90002041
:10175000109006A93048FFF7BBFF01212E48FFF784
:1017600005FF0020019001208DF808008DF8090088
:101770004FF4602003900020049004208DF81400A2
:1017800001A926484C38FFF7EDFD4FF4404000F02A
:1017900069FA052301220A2120484C38FFF70AFE86
:1017A000052302220B211D484C38FFF703FE0523B9
:1017B00003220C2119484C38FFF7FCFD05230422B5
:1017C0000D2116484C38FFF7F5FD012113484C3820
:1017D000FFF7A9FD012111484C38FFF799FD0F488B
:1017E0004C38FFF743FE00BF0C484C38FFF7B0FD04
:1017F0000028F9D109484C38FFF748FE00BF0748D8
:101800004C38FFF79BFD0028F9D1012103484C38E3
:10181000FFF731FE11B000BD080002404C2401402A
:10182000AE0300207047000008B50121282000F019
:1018300045FA4FF44070ADF8000004208DF8030025
:1018400003208DF802006946084800F037F84FF48D
:101850000040ADF8000004208DF8030003208DF84F
:1018600002006946024800F029F808BD0014014052
:10187000000C01402DE9F04100240025002600273E
:101880004FF400410B4800F0EDF804464FF480712E
:10189000094800F0E7F805464FF40071064800F0EB
:1018A000E1F80646A00040EA45003043C7B238469A
:1018B000BDE8F081000C0140001401402DE9F04129
:1018C000024600250026002000230024002791F86E
:1018D00003C00CF00F0591F803C00CF0100CBCF124
:1018E000000F03D091F802C04CEA050591F800C042
:1018F000BCF1000F31D0146800202BE04FF0010C38
:101900000CFA00F3B1F800C00CEA03069E4220D1A5
:1019100083004FF00F0C0CFA03F7BC4305FA03FCED
:101920004CEA040491F803C0BCF1280F06D14FF033
:10193000010C0CFA00FCC2F814C00AE091F803C0D4
:10194000BCF1480F05D14FF0010C0CFA00FCC2F8B5
:1019500010C0401C0828D1D31460B1F800C0BCF1FD
:10196000FF0F34DD546800202EE000F1080C4FF02A
:10197000010808FA0CF3B1F800C00CEA03069E4215
:1019800021D183004FF00F0C0CFA03F7BC4305FA8A
:1019900003FC4CEA040491F803C0BCF1280F05D104
:1019A00000F1080C08FA0CF8C2F8148091F803C092
:1019B000BCF1480F07D100F1080C4FF0010808FAFC
:1019C0000CF8C2F81080401C0828CED35460BDE843
:1019D000F0810000F0B50A46002300240021002514
:1019E00000F00046B6F1004F02D11D4EF16901E052
:1019F0001B4E7168C0F3034583B200F44016B6F580
:101A0000401F08D121F07061154E766826F070668F
:101A1000134F7E6012E000F48016B6F5801F06D1E9
:101A2000032606FA05F4A14341F0706106E0460D75
:101A3000360103FA06F6B14341F0706122B1460D5A
:101A4000360103FA06F6314300F00046B6F1004FC6
:101A500002D1034EF16101E0014E7160F0BD000062
:101A6000000001400246002093680B400BB10120AA
:101A700000E000207047416170470AB1016100E059
:101A8000416170472DE9FF5F04464FF0000929E0EE
:101A90001F4931F8140004F065F84FF08B410090B5
:101AA00003F016FF019003F079FE4FF06632194BF8
:101AB000CDE9020103F08AFC05460E46164951F8AD
:101AC000240003F06BFE07462A46334603F036FA3D
:101AD000824603F001FA104941F8240009F101009F
:101AE0001FFA80F9B9F5FA6FD2DB0B4951F82400DF
:101AF00003F054FE07460022084B03F0D3FA0546D4
:101B000003F0EAF9044941F82400BDE8FF9F000012
:101B1000AE03002066660A408004002000409F401B
:101B200000BFFEE710B500F005F8FFF7CDFCFFF7AA
:101B3000E7FC10BD08B50121482000F0BFF8802067
:101B4000ADF8000010208DF8030003208DF802008E
:101B500069460548FFF7B2FE0720ADF80000694668
:101B60000248FFF7ABFE08BD00180140000C014021
:101B700000BFFEE7704708B54FF4A06000F066F8BC
:101B800036208DF8000001208DF8010000208DF82E
:101B9000020001208DF80300684600F01FF837208E
:101BA0008DF8000000208DF801008DF80200012062
:101BB0008DF80300684600F011F81D208DF8000034
:101BC00002208DF8010000208DF8020001208DF820
:101BD0000300684600F002F808BD000070B500215F
:101BE00000230F22C47804B3154C246804F4E06485
:101BF000C4F5E064210AC1F10403CA40447804FA40
:101C000003F184781440214309010E4C0678A15554
:101C1000047804F01F050124AC4005786D11AD0077
:101C200005F1E025C5F8004109E0047804F01F053E
:101C30000124AC40044D0678761145F8264070BD6D
:101C40000CED00E000E400E080E100E00249014327
:101C5000024A1160704700000000FA050CED00E038
:101C60007047000001460020034A506820F44040BD
:101C700008435060704700000010024029B1064A36
:101C800052690243044B5A6104E0034A5269824399
:101C9000014B5A61704700000010024029B1064A0A
:101CA000D2690243044BDA6104E0034AD2698243F9
:101CB000014BDA61704700000010024029B1064A6A
:101CC00092690243044B9A6104E0034A9269824399
:101CD000014B9A61704700000010024030B50021AE
:101CE0000022002400232D4D6D6805F00C0121B168
:101CF000042905D0082923D105E0294D056022E0FB
:101D0000274D05601FE0254D6D6805F47012234DC9
:101D10006D6805F48034022505EB92421CB9214D13
:101D2000554305600BE01D4D6D6805F400351DB190
:101D30001C4D5543056002E0194D5543056002E016
:101D4000174D056000BF00BF144D6D6805F0F00130
:101D50000909154D6B5C0568DD4045600F4D6D68E8
:101D600005F4E061090A104D6B5C4568DD40856053
:101D70000A4D6D6805F46051C90A0B4D6B5C4568EE
:101D8000DD40C560054D6D6805F44041890B074D88
:101D90006B5CC568B5FBF3F5056130BD0010024012
:101DA00000127A0000093D003600002046000020A5
:101DB000704710B500F002F810BD00000CB500200F
:101DC000019000903348006840F480303149086049
:101DD00000BF3048006800F4003000900198401CBB
:101DE0000190009818B90198B0F5A06FF1D1294879
:101DF000006800F4003010B10120009001E00020E4
:101E000000900098012843D12348006840F010005A
:101E1000214908600846006820F003000860084671
:101E2000006840F0020008601A484068194948609C
:101E30000846406848600846406840F48060486052
:101E40000846406820F47C1048600846406840F42A
:101E5000E81048600846006840F08070086000BFE5
:101E60000C48006800F000700028F9D0094840686C
:101E700020F00300074948600846406840F002002F
:101E8000486000BF0348406800F00C000828F9D102
:101E90000CBD00000010024000200240042808D1C0
:101EA0004FF0E021096941F004014FF0E022116197
:101EB00007E04FF0E021096921F004014FF0E02232
:101EC0001161704730B50146B1F1807F01D3012027
:101ED00030BD21F07F40401E4FF0E022506150178E
:101EE0000F22002807DA13071D0E094B00F00F041C
:101EF000241F1D5503E013071C0E064B1C5400BF86
:101F000000204FF0E0229061072010610020DFE701
:101F100018ED00E000E400E07047000010B5134841
:101F2000006840F001001149086008464068104907
:101F300008400E494860084600680E4908400B49B1
:101F400008600846006820F4802008600846406861
:101F500020F4FE0048604FF41F008860FFF729FF5F
:101F60004FF000600449086010BD000000100240FE
:101F70000000FFF8FFFFF6FE08ED00E008B50121C4
:101F80000420FFF79BFE4FF40040ADF8000018203E
:101F90008DF8030003208DF8020069463E48FFF7E4
:101FA0008DFC01210820FFF789FE0820ADF8000014
:101FB00018208DF8030003208DF802006946374889
:101FC000FFF77CFC01211020FFF778FE8020ADF8A0
:101FD000000018208DF8030003208DF802006946E8
:101FE0002F48FFF76BFC01211020FFF767FE4FF42D
:101FF0008070ADF8000018208DF8030003208DF8E4
:10200000020069462648FFF759FC01211020FFF71E
:1020100055FE4FF40070ADF8000018208DF8030055
:1020200003208DF8020069461D48FFF747FC012197
:102030000820FFF743FE4020ADF8000018208DF87F
:10204000030003208DF8020069461448FFF736FCB0
:1020500001210820FFF732FE8020ADF80000182093
:102060008DF8030003208DF8020069460B48FFF746
:1020700025FC01210820FFF721FE4FF48070ADF808
:10208000000018208DF8030003208DF80200694637
:102090000248FFF713FC08BD00080140000C014096
:1020A000001001401FB56020ADF800000120ADF820
:1020B00002000020ADF80800ADF8060069464FF0B8
:1020C000804000F08FFA0821C80600F0D7FA0020FF
:1020D000ADF8060069464FF0804000F0D9FA0821BB
:1020E000C80600F027FB0121880700F055FA002000
:1020F000ADF806006946234800F0CAFA08212148D5
:1021000000F018FB0020ADF8060069461D4800F0FD
:102110001FFB08211B4800F06BFB0020ADF80600F8
:102120006946184800F06EFB0821164800F0A8FB2D
:102130000121144800F030FA0020ADF8060069468D
:10214000114800F04FFA08210F4800F097FA0020DC
:10215000ADF8060069460C4800F09AFA08210A48D2
:1021600000F0E8FA0020ADF806006946064800F0E5
:10217000EFFA0821044800F03BFB0121024800F07F
:102180000BFA1FBD00040040000800400EB50121FD
:102190000846FFF783FD01210846FFF78FFD012167
:1021A0002848FFF717FC01212748FFF713FC63209D
:1021B000ADF804004720ADF800000020ADF806009F
:1021C000ADF802008DF8080069464FF0804000F03D
:1021D00065FB01210220FFF761FD6320ADF80400DB
:1021E0004720ADF800000020ADF80600ADF8020071
:1021F0008DF808006946154800F050FB0122114691
:10220000124800F0E6F90121104800F0BFF96946D4
:102210000E4800F043FB01210420FFF73FFD63203F
:10222000ADF804004720ADF800000020ADF806002E
:10223000ADF802008DF808006946054800F02EFB55
:102240000EBD000000031800000C1A00000400403E
:102250000008004010B50121114800F0A9F9F0B1C3
:1022600001210F4800F095F90E484079012816D158
:102270000C480079012812D100BF80F3138800BFF9
:1022800000BF0948006800F4E06008490843001DE9
:1022900005490860BFF34F8F00BF00BFFEE710BDC8
:1022A00000040040900400200CED00E00000FA055E
:1022B0000EB501213020FFF7F1FC01210846FFF7A0
:1022C000FDFC01211F48FFF785FB40F2E730ADF828
:1022D000040041F61F40ADF800000020ADF80600F4
:1022E000ADF8020001221146174800F072F90121F1
:1022F000154800F04BF96946134800F0CFFA012168
:10230000114800F049F942F20F70ADF8040041F6AF
:102310001F40ADF800000020ADF80600ADF8020047
:1023200001221146094800F054F90121074800F044
:102330002DF96946054800F0B1FA0021034800F084
:102340002BF90EBD000230000010004000140040C8
:1023500010B5FFF7ADFFFFF70EFCFFF70FFEFFF71D
:1023600015FFFFF79FFE10BD10B501213C4800F09E
:102370001FF9002872D00121394800F00AF900F055
:102380003FFF0020FFF77EFBFFF774FA042815D00B
:102390003448006808B9012000E000203149086095
:1023A0003148D0F8800108B9012000E000202D4913
:1023B0003839086001202D4908700BE02B4800785F
:1023C000012807D10020274908602749C1F880016A
:1023D000264908702649086A264903F0D7FB09D820
:1023E0002349086A002103F035FB03D02248234922
:1023F000086018E01E49086A1E4903F0C7FC09D2AC
:102400001B49086A1E4903F0C1FB03D21D481B4942
:10241000086008E01649086A194903F0B7FC02D8B9
:1024200019481649086019480088012816D118482B
:102430000088401C1649088008460088022803D1FD
:10244000002000F009FE09E011480088092805D1A4
:1024500000200F4908801E2000F0FEFD10BD000086
:1024600000100040B8812142008021428A000020F3
:1024700090040020000008423333FB416C00002030
:10248000000020429A99F541CDCCFC418600002005
:102490008400002010B50121334800F089F800289D
:1024A00061D00121304800F074F830480068401CC9
:1024B0002E4908602E480078401C2D4908700846B7
:1024C0000078022803DB0220087000F03FFC294856
:1024D0000078012847D1254800683C281FD10020FA
:1024E0002249086024480068401E234908600846C5
:1024F0000068002804DA0920086001201F49C87715
:102500001F48006858B91F48006840B91A48006859
:1025100028B901201C490870002016490870174886
:10252000C07F012813D100201449C87714480068DF
:10253000401E1349086008460068002807DA114861
:10254000006820B10920086001200C4988770B48F9
:10255000807F012807D10020084988770948006852
:10256000401E0849086010BD001400409000002083
:102570008D0000208C0000204C00002090040020E2
:1025800050000020540000208B000020CA4302822B
:102590007047CA430282704721B1028842F00102AB
:1025A000028004E002884FF6FE731A4002807047F2
:1025B00030B50246002000230024158A05EA0103F5
:1025C000958905EA010413B10CB1012000E0002057
:1025D00030BD1AB183890B43838102E083898B4329
:1025E0008381704770B5002400220023058C4FF6CC
:1025F000FE7635400584028C8388048B4FF68F75F8
:102600002C40B51E2C400D882C43751E2A400D8988
:102610002A434D882A43144DA8420BD0134DA8429B
:1026200008D0134DA84205D0124DA84202D0124D39
:10263000A84213D14FF6F7752A404D892A434FF629
:10264000FB752A408D882A434FF6FF652B404FF6D5
:10265000FF552B408D892B43CD892B4383800483E9
:10266000CD888586028470BD002C01400034014075
:102670000040014000440140004801400A4600215A
:10268000018B4FF6F7731940114301837047000027
:1026900070B5002400220023058C4FF6EF763540FC
:1026A0000584028C8388048B48F6FF752C404FF616
:1026B000FF452C400D884FF6FF7606EA05252C4392
:1026C0004FF6DF752A400D8906EA05152A434D8825
:1026D00006EA05152A43154DA84202D0144DA8421A
:1026E0001DD14FF67F752A404D894FF6FF7606EAD9
:1026F00005152A434FF6BF752A408D8806EA051551
:102700002A434FF6FF352B404FF2FF752B408D8942
:1027100006EA85052B43CD8906EA85052B43838090
:102720000483CD880587028470BD0000002C014021
:10273000003401400A460021018B4FF2FF7319401B
:102740004FF6FF7303EA0223194301837047000029
:1027500070B5002400220023058C4FF6FF6635403B
:102760000584028C8388848B4FF68F752C404FF63E
:10277000FC752C400D882C434FF6FF552A400D89DF
:102780004FF6FF7606EA05252A434D8806EA052519
:102790002A43154DA84202D0144DA8421DD14FF234
:1027A000FF752A404D894FF6FF7606EA05252A4334
:1027B0004FF6FF352A408D8806EA05252A434EF656
:1027C000FF752B404DF6FF752B408D8906EA0515E8
:1027D0002B43CD8906EA05152B4383808483CD885E
:1027E0008587028470BD0000002C01400034014048
:1027F0000A460021818B4FF6F773194011438183FC
:102800007047000070B5002200230024058C4EF6AE
:10281000FF7635400584038C8488828B48F6FF75EB
:102820002A404FF6FF452A400D884FF6FF7606EA0C
:1028300005252A434DF6FF752B400D8906EA05351F
:102840002B434D8806EA05352B430B4DA84202D099
:102850000A4DA84208D14BF6FF752C408D894FF6E2
:10286000FF7606EA85152C4384808283CD88A0F804
:102870004050038470BD0000002C01400034014032
:102880000A460021818B4FF2FF7319404FF6FF7308
:1028900003EA022319438183704700000022028863
:1028A0001D4B98420ED01D4B98420BD0B0F1804F7B
:1028B00008D01B4B984205D01A4B984202D01A4BB5
:1028C000984204D14FF68F731A404B881A43174B26
:1028D000984207D0164B984204D04FF6FF431A4057
:1028E000CB881A4302808B8883850B8803850A4B2B
:1028F00098420BD0094B984208D00E4B984205D015
:102900000D4B984202D00D4B984201D10B7A0386B1
:102910000123838270470000002C014000340140F5
:102920000004004000080040000C0040001000407F
:1029300000140040004001400044014000480140B4
:1029400010B501F085FD01F0A3FD01F01FFE10BDE3
:102950002DE9F05F04460D4616461F46DDE90CAB37
:10296000DDE90A89002000EBC400EF4A105C002278
:1029700002EBC502ED4B9A5C1043002202EBC6024B
:10298000EB4B9A5C1043002202EBC702E94B9A5CC6
:102990001043002202EBC802E74B9A5C104300226E
:1029A00002EBC902E54B9A5C1043002202EBCA021B
:1029B000E34B9A5C1043002202EBCB02E14B9A5CA2
:1029C00040EA0201C02001F0CBFD012000EBC40071
:1029D000D54A105C012202EBC502D44B9A5C10432D
:1029E000012202EBC602D24B9A5C1043012202EB99
:1029F000C702D04B9A5C1043012202EBC802CE4BB7
:102A00009A5C1043012202EBC902CC4B9A5C104342
:102A1000012202EBCA02CA4B9A5C1043012202EB6C
:102A2000CB02C84B9A5C40EA0201C22001F098FD3B
:102A3000022000EBC400BC4A105C022202EBC5027B
:102A4000BA4B9A5C1043022202EBC602B84B9A5C66
:102A50001043022202EBC702B64B9A5C10430222DB
:102A600002EBC802B44B9A5C1043022202EBC9028B
:102A7000B24B9A5C1043022202EBCA02B04B9A5C42
:102A80001043022202EBCB02AE4B9A5C40EA0201F9
:102A9000C42001F065FD032000EBC400A24A105CD5
:102AA000032202EBC502A14B9A5C1043032202EB06
:102AB000C6029F4B9A5C1043032202EBC7029D4B58
:102AC0009A5C1043032202EBC8029B4B9A5C1043B2
:102AD000032202EBC902994B9A5C1043032202EBDA
:102AE000CA02974B9A5C1043032202EBCB02954B30
:102AF0009A5C40EA0201C62001F032FD042000EB9E
:102B0000C400894A105C042202EBC502874B9A5C20
:102B10001043042202EBC602854B9A5C1043042248
:102B200002EBC702834B9A5C1043042202EBC802FB
:102B3000814B9A5C1043042202EBC9027F4B9A5CE2
:102B40001043042202EBCA027D4B9A5C104304221C
:102B500002EBCB027B4B9A5C40EA0201C82001F0F9
:102B6000FFFC052000EBC4006F4A105C052202EB5D
:102B7000C5026E4B9A5C1043052202EBC6026C4BF9
:102B80009A5C1043052202EBC7026A4B9A5C104321
:102B9000052202EBC802684B9A5C1043052202EB47
:102BA000C902664B9A5C1043052202EBCA02644BD1
:102BB0009A5C1043052202EBCB02624B9A5C40EA1E
:102BC0000201CA2001F0CCFC062000EBC400564AEA
:102BD000105C062202EBC502544B9A5C104306229D
:102BE00002EBC602524B9A5C1043062202EBC7026C
:102BF000504B9A5C1043062202EBC8024E4B9A5C83
:102C00001043062202EBC9024C4B9A5C1043062289
:102C100002EBCA024A4B9A5C1043062202EBCB023B
:102C2000484B9A5C40EA0201CC2001F099FC072055
:102C300000EBC4003C4A105C072202EBC5023B4B90
:102C40009A5C1043072202EBC602394B9A5C104390
:102C5000072202EBC702374B9A5C1043072202EBB4
:102C6000C802354B9A5C1043072202EBC902334B72
:102C70009A5C1043072202EBCA02314B9A5C104364
:102C8000072202EBCB022F4B9A5C40EA0201CE20D6
:102C900001F066FC00220E9802EBC0002A4A115C8B
:102CA000C12001F05DFC01220E9802EBC000264A13
:102CB000115CC32001F054FC02220E9802EBC0000C
:102CC000214A115CC52001F04BFC03220E9802EB57
:102CD000C0001D4A115CC72001F042FC04220E987E
:102CE00002EBC000184A115CC92001F039FC052232
:102CF0000E9802EBC000144A115CCB2001F030FCAE
:102D000006220E9802EBC0000F4A115CCD2001F0A4
:102D100027FC07220E9802EBC0000B4A115CCF2063
:102D200001F01EFCBDE8F09F96000020EE000020A0
:102D3000460100209E010020F60100204E020020E6
:102D4000A6020020FE020020560300202DE9FF5FAE
:102D50004FF0000A26E03049488802F003FF4FF0A8
:102D60008B41019002F0B4FD834602F017FD8046CE
:102D70004FF06632294B02F029FB06460F462849E0
:102D8000486802F00BFD32463B46CDE9020102F0F5
:102D9000D5F8044602F0A0F8214948600AF1010084
:102DA0001FFA80FABAF5FA6FD5DB1D49486802F0C0
:102DB000F5FC064600221B4B02F074F9044602F0B3
:102DC0008BF8174948604FF0000A11E01449486831
:102DD0001549096802F00EFF0446144801682046B0
:102DE00002F008FD114908600AF101001FFA80FA9B
:102DF000BAF5FA6FEADB0D48006802F0CFFC044632
:102E00000022084B02F04EF9064602F065F8074929
:102E10000860BDE8FF9F0000AE03002066660A4020
:102E20008004002000409F406C00002068000020CB
:102E300010B540F225511D4800F04AF810B31B4868
:102E400000F002F9C4B21A48008800F40040C8B982
:102E50001748008800F4804060B10A2C03D000209D
:102E60001349088020E01248008840F400401049CF
:102E7000088019E00D2C06D10D48008840F48040F0
:102E80000B49088010E00A480088C0F30D0009498A
:102E90000C5407480088401C0549088008460088F3
:102EA000C72801DD0020088010BD00000038014067
:102EB00034000020B803002021B1828942F400527E
:102EC000828104E082894DF6FF731A408281704747
:102ED00070B50246002400230025002040F66A1643
:102EE000B14200D100BFC1F3421501F01F0301261A
:102EF00006FA03F3012D02D19689334006E0022D34
:102F000002D1168A334001E0968A33400C12012622
:102F100006FA04F41688344013B10CB1012000E025
:102F2000002070BDF0B503460024002600250020D7
:102F300040F66A17B94200D100BF1846C1F34214E7
:102F400001F01F06012707FA06F5012C01D10C300C
:102F500004E0022C01D1103000E014301AB10768EF
:102F60002F43076002E00768AF430760F0BD000031
:102F70002DE9F04786B005460E460024A24600BF64
:102F8000A1460027B08900B100BF2F462C8A4CF61D
:102F9000FF700440F08804432C82AC894EF6F31095
:102FA0000440B08831890843718908430443AC81E7
:102FB000AC8A4FF6FF400440B0890443AC8201A8BC
:102FC000FEF78CFE1F48874202D1DDF810A001E019
:102FD000DDF80CA0A88900F4004040B10AEBCA005B
:102FE00000EB0A1031684900B0FBF1F807E00AEB8A
:102FF000CA0000EB0A1031688900B0FBF1F86420C8
:10300000B8FBF0F004012009642101FB1089A889B4
:1030100000F4004040B1322000EBC900B0FBF1F0F9
:1030200000F00700044308E0322000EB091064219F
:10303000B0FBF1F000F00F0004432C8106B0BDE8B6
:10304000F08700000038014001468888C0F308007E
:10305000704700BFFEE7000001490880704700008C
:10306000340800404FF0804108877047490050EA1B
:10307000C12018BF04204A0D18BF40F0010040F2E3
:10308000FF72B2EB515F08BF40F00200012808BF99
:103090000520704700BF704710B56FF00400FEF7C1
:1030A000FDFE0A4800680A49B0FBF1F009490870C2
:1030B0000846007800EB4001C1EBC0104FF6FF71ED
:1030C00001EAC0000449088010BD0000180000207B
:1030D00000127A002C0000202E00002070B504465B
:1030E0000F4800684FF47A71B0FBF1F63046FEF7F6
:1030F000E9FE002508E000BF4FF0E020006900F481
:1031000080300028F8D06D1CA542F4D34FF0E020A9
:10311000006920F001004FF0E021086170BD00005F
:103120001800002000BF054A128802F04002002A61
:10313000F9D0C2B2014B1B1D1A8070470038014004
:1031400038B50025002210212B48FEF796FC4220BE
:1031500001F0D0F92948006820F070402749086044
:103160000846006840F000400860012240212248E3
:10317000FEF783FC002405E001F09EF90DF8040041
:10318000601CC4B2042CF7DB1C48006820F07040BF
:103190001A4908600846006840F040500860012263
:1031A00010211548FEF769FC002420E01DF80400FA
:1031B000D0B11DF804000E300F2190FBF1F0022178
:1031C00001FB0400C5B2284605EBD0725210A5EBF6
:1031D0004202C2F10102072303FB0252511C01EB20
:1031E000D172C2F3470504E00025601CC4B2042C70
:1031F000DCDB00BF284638BD000801400418014050
:1032000000B585B0FE48C078FD498978401A01288C
:1032100078D10020FA49887388740846407B30B919
:10322000084680790870002048700120487301F03A
:1032300002FA022001F0C1F9F1480078F04949781A
:10324000401A0A2875D2DFE800F005101B26313C31
:1032500047525E69002001F0FFF9E9480078E8492B
:103260004978401AE649887163E0012001F0F4F9D9
:10327000E3480078E2494978401AE149887158E00A
:10328000022001F0E9F9DE480078DD494978401A6A
:10329000DB4988714DE0032001F0DEF9D848007861
:1032A000D7494978401AD649887142E0042001F094
:1032B000D3F9D3480078D2494978401AD049887167
:1032C00037E0052001F0C8F9CD480078CC494978AD
:1032D000401ACB4988712CE0062001F0BDF9C8489E
:1032E0000078C7494978401AC549887121E007200C
:1032F00001F0B2F9C2480078C1494978401AC04982
:10330000887116E016E0082001F0A6F9BC480078A4
:10331000BB494978401ABA4988710AE0092001F08E
:103320009BF9B7480078B6494978401AB449887182
:1033300000BF00BFB248C078B1498978401A02285E
:1033400079D10020AE494873C873032001F035F9E4
:10335000AB48807B38B9AA48C079A94908700020D9
:10336000487001208873A6480078A5494978401A1A
:103370000A2814D2DFE800F0051423324150606FB0
:103380007E8D9F48807901460490002001F0ACF9C1
:103390009B4800789A494978401A9949C87187E052
:1033A0009748807901460490012001F09DF99448E6
:1033B000007893494978401A9149C87178E090485B
:1033C000807901460490022001F08EF98C48007843
:1033D0008B494978401A8A49C87169E088488079E0
:1033E00001460490032001F07FF985480078844964
:1033F0004978401A8249C8715AE08148807901466B
:103400000490042001F070F97D4800787C494978E7
:10341000401A7B49C8714BE0794880790146049095
:10342000052001F061F97648007875494978401A1D
:103430007349C8713CE03CE07148807901460490D2
:10344000062001F051F96E4800786D494978401A1C
:103450006B49C8712CE06A488079014604900720C6
:1034600001F042F96648007865494978401A644994
:10347000C8711DE06248807901460490082001F07F
:1034800033F95F4800785E494978401A5C49C87151
:103490000EE05B48807901460490092001F024F990
:1034A0005748007856494978401A5549C87100BFB5
:1034B00000BF5348C07852498978401A03287AD10E
:1034C00000204F49887348740846C07B30B90846CD
:1034D000007A0870002048700120C87348480078BE
:1034E00047494978401A0A2818D2DFE800F0051841
:1034F0002B3E5165788EA1B44148807904904048B4
:10350000C079039001460020049A01F071F93C480B
:1035100000783B494978401A39490872AEE038488A
:10352000807904903648C079039001460120049ABE
:1035300001F05EF93248007831494978401A304943
:1035400008729BE02E48807904902D48C079039042
:1035500001460220049A01F04BF9294800782849D5
:103560004978401A2649087288E0254880790490F5
:103570002348C079039001460320049A01F038F9EA
:103580001F4800781E494978401A1D49087275E0A5
:103590001B48807904901A48C079039001460420A2
:1035A000049A01F025F91648007815494978401A1F
:1035B0001349087262E062E0114880790490104873
:1035C000C079039001460520049A01F011F90C48D6
:1035D00000780B494978401A094908724EE00848BA
:1035E000807904900648C079039001460620049A29
:1035F00001F0FEF80248007801494978401A01E0DC
:1036000090040020F849087238E0F7488079049067
:10361000F548C079039001460720049A01F0E8F8C4
:10362000F1480078F0494978401AEF49087225E0DE
:10363000ED4880790490EC48C07903900146082059
:10364000049A01F0D5F8E8480078E7494978401A2B
:10365000E549087212E0E44880790490E248C079B4
:10366000039001460920049A01F0C2F8DE48007870
:10367000DD494978401ADC49087200BF00BFDA48CA
:10368000C078D9498978401A042877D10020D649D2
:10369000C87348740846007C30B90846407A087000
:1036A0000020487001200874CF480078CE4949783E
:1036B000401A0A281CD2DFE800F0051C334A627960
:1036C00090A7BED5C84880790490C748C0790390B8
:1036D000C548007A029001460020DDE9032301F08D
:1036E0003DF9C1480078C0494978401ABE4948723E
:1036F000CFE0BD4880790490BB48C0790390BA48B8
:10370000007A029001460120DDE9032301F026F949
:10371000B5480078B4494978401AB3494872B8E0CE
:10372000B14880790490B048C0790390AE48007ADF
:10373000029001460220DDE9032301F00FF9AA48B7
:103740000078A9494978401AA7494872A1E0A648DB
:1037500080790490A448C0790390A348007A02902D
:1037600001460320DDE9032301F0F8F89E480078C4
:103770009D494978401A9C4948728AE08AE09A48F3
:10378000807904909848C07903909748007A029015
:1037900001460420DDE9032301F0E0F892480078B7
:1037A00091494978401A9049487272E08E48807970
:1037B00004908D48C07903908B48007A02900146AE
:1037C0000420DDE9032301F0C9F887480078864921
:1037D0004978401A844948725BE0834880790490B4
:1037E0008148C07903908048007A02900146062003
:1037F000DDE9032301F0B2F87B4800787A49497883
:10380000401A7949487244E07748807904907648B4
:10381000C07903907448007A029001460720DDE9E0
:10382000032301F09BF8704800786F494978401AEB
:103830006D4948722DE06C48807904906A48C079DF
:1038400003906948007A029001460820DDE90323CD
:1038500001F084F86448007863494978401A624965
:10386000487216E06048807904905F48C079039000
:103870005D48007A029001460920DDE9032301F04A
:103880006DF85948007858494978401A56494872A5
:1038900000BF00BF5448C07853498978401A0528B2
:1038A0007DD1002050490874887400F0C4FE4E4851
:1038B000407C38B94C48807A4B49087000204870E9
:1038C000012048744848007847494978401A0A2836
:1038D0001FD2DFE800F0051F39536F8BA5BFD9F465
:1038E0004148807900904048C07904903E48007A71
:1038F00003903D48407A029001460020DDE9032311
:1039000001F018F93848007837494978401A3649A3
:103910008872EEE03448807900903348C079049092
:103920003148007A03903048407A029001460120E5
:10393000DDE9032301F0FEF82B4800782A49497895
:10394000401A29498872D4E0274880790090264897
:10395000C07904902448007A03902348407A02906A
:1039600001460220DDE9032301F0E4F81E48007857
:103970001D494978401A1C498872BAE01A48807972
:1039800000901948C07904901748007A03901648AF
:10399000407A029001460320DDE9032300E0A9E01C
:1039A00001F0C8F8104800780F494978401A0E49CC
:1039B00088729EE00C48807900900B48C079049092
:1039C0000948007A03900848407A02900146042092
:1039D000DDE9032301F0AEF8034800780249497895
:1039E000401A0149887284E090040020CF48807911
:1039F0000090CE48C0790490CC48007A0390CB4820
:103A0000407A029001460520DDE9032301F092F897
:103A1000C6480078C5494978401AC449887268E0A8
:103A2000C24880790090C148C0790490BF48007AAC
:103A30000390BE48407A029001460620DDE9032348
:103A400001F078F8B9480078B8494978401AB74980
:103A500088724EE0B54880790090B448C0790490EF
:103A6000B248007A0390B148407A0290014607209C
:103A7000DDE9032301F05EF8AC480078AB494978F2
:103A8000401AAA49887234E0A84880790090A74873
:103A9000C0790490A548007A0390A448407A029027
:103AA00001460820DDE9032301F044F89F4800782F
:103AB0009E494978401A9D4988721AE0FFE79B4861
:103AC000807900909948C07904909848007A0390D2
:103AD0009648407A029001460920DDE9032301F06F
:103AE00029F89248007891494978401A8F4988729C
:103AF00000BF00BF8D48C0788C498978401A0628DD
:103B000078D100208949487448730846807C30B9D0
:103B10000846C07A0870002048700120887400F0C0
:103B20008AFD8248807900908048C07904907F485F
:103B3000007A03907D48407A02907C48807A019018
:103B400002A90EC900F0F6FF784800787749497855
:103B5000401A0A287FD2DFE800F005111D293541FF
:103B60004E5A66720021084601F004F96F48007849
:103B70006E494978401A6D49C8726CE000210120F5
:103B800001F0F8F86948007868494978401A6749AF
:103B9000C87260E00021022001F0ECF86348007870
:103BA00062494978401A6149C87254E000210320F3
:103BB00001F0E0F85D4800785C494978401A5B49BB
:103BC000C87248E00021042001F0D4F8574800787A
:103BD00056494978401A5549C8723CE000210520F1
:103BE00001F0C8F85148007850494978401A4F49C7
:103BF000C87230E030E00021062001F0BBF84B48ED
:103C000000784A494978401A4849C87223E000219F
:103C1000072001F0AFF84548007844494978401A38
:103C20004249C87217E00021082001F0A3F83F487C
:103C300000783E494978401A3C49C8720BE000219F
:103C4000092001F097F83948007838494978401A36
:103C50003649C87200BF00BF3448807964214843A8
:103C60003249C97901EB810100EB41002F49097A02
:103C70000844039001F05EFF2D49049001F028FEF6
:103C80002A4908620846407A642148432749897ACC
:103C900001EB810100EB41002449C97A0844234922
:103CA000486208468079042803DB0846C079042866
:103CB00003DC1E488079042804DD04201B490870B9
:103CC000002048701948007901282CD1002017499C
:103CD0000871C870887000211648FEF75DFC134813
:103CE000406A1549086008460068642190FBF1F0BD
:103CF00012490860104800680A2190FBF1F090FB1F
:103D0000F1F201FB12000E4908600B4800680A211D
:103D100090FBF1F201FB12000A4908600122042124
:103D20000948FDF7AAFE05B000BD00009004002080
:103D300000002041001400405800002054000020E2
:103D4000500000204C000020000C014010B54A48F3
:103D5000007849494978401A092803DD002046497E
:103D6000087048704448007843494978401A04D59F
:103D7000092041490870002048703F48C0783E49FA
:103D80008978401A01280ADA3B48C07838B13A48A5
:103D9000807820B101203849C870002088703648EA
:103DA000C07835498978401A062804DD0620324952
:103DB000C87000208870FFF7C3F906280CD11420C2
:103DC000FFF78CF9FFF7BCF9062854D12A48007890
:103DD000401C294908704EE0FFF7B2F907280CD1C2
:103DE0001420FFF77BF9FFF7ABF9072843D12248EE
:103DF0004078401C204948703DE0FFF7A1F90328B6
:103E00000CD11420FFF76AF9FFF79AF9032832D191
:103E100019488078401C184988702CE0FFF790F909
:103E200002280CD11420FFF759F9FFF789F902286D
:103E300021D11148C078401C0F49C8701BE0FFF722
:103E40007FF905280AD11420FFF748F9FFF778F920
:103E5000052810D10120084908710CE0FFF770F91E
:103E6000012808D11420FFF739F9FFF769F9012873
:103E700001D10149487110BD9004002086B0FDF7C2
:103E80001DFBFDF74FFEFFF707F94FF4E13000F09F
:103E9000BDFFFDF7C9FCFEF753FDFEF759FA0122FD
:103EA0008021F648FDF7E9FD01229103F448FDF772
:103EB000E4FDC820FFF712F900224FF48041F048DA
:103EC000FDF7DBFDA2E2FFF741FF6420FFF706F9F3
:103ED000EC480068EC490860EC49ED48006801F0E6
:103EE00089FE0546EB4901F0F3FC044601F0E6FDCE
:103EF000E9490860E549E648006801F07BFE0546AF
:103F0000E24901F0E5FC044601F0D8FD0A2190FBEE
:103F1000F1F201FB1200E1490860DC49DC4800686D
:103F200001F068FE044601F0C9FD0A2190FBF1F2A0
:103F300001FB1200DA490860D348006801F02EFC4A
:103F4000044622460B46D7A0FCF796F9DAA0FCF708
:103F500093F9CF48006801F021FC044622460B4645
:103F6000D6A0FCF789F9D4A0FCF786F9FDF782FC0E
:103F700004462146D7A0FCF77FF9CFA0FCF77CF9D7
:103F8000D948407901287CD101220221BC48FDF7A3
:103F900074FD0121D548FEF7FFFAD54800780128C5
:103FA00005D10A20FFF758F80020D1490870B6481B
:103FB000006801F0F3FB04464FF03332CD4B01F0C3
:103FC000C9F903D20020FFF74DF802E01E20FFF7E9
:103FD00049F8C948007802285CD1C8480078002810
:103FE00058D1C5490870C6480078D0B9AA480068B9
:103FF000B8B1C4480178C4480078C44A1278A84BC4
:104000001B78CDE90132CDE90301A4480078A24C28
:1040100000902378B44C227AE179A079FEF798FCDD
:1040200032E0B149086A4FF07E5101F0E3FB0446EB
:1040300097480168204601F0A9FE25D2AA49086ADE
:104040004FF07E5101F0D4FE0446914801682046AD
:1040500001F09CFD18D2AB480178AB480078AB4A20
:1040600012788F4B1B78CDE90132CDE903018B48E3
:104070000078894C009023789B4C227AE179A079D2
:1040800000E007E0FEF764FCA1A0FCF7F5F80120D2
:10409000FFF724F84FF07E517D48006801F0AAFB3D
:1040A00004469148016A204601F070FE13D88E48FC
:1040B000407901280FD19748007860B901209549CF
:1040C00008708F490870944908700020934908804F
:1040D00093A0FCF7D1F89048007801287ED182495E
:1040E000086A4FF07E5101F085FB0446684801687C
:1040F000204601F04BFE10D27B49086A4FF07E51FA
:1041000001F076FE044662480168204601F03EFD5B
:1041100003D25F480068834908600020FEF79CFFD7
:104120000120764908707D49088058497D4800681B
:1041300001F060FD0446574901F0CAFB7A49086066
:1041400052497848006801F055FD06464F4901F094
:10415000BFFB054601F0B2FC0A2190FBF1F201FB26
:104160001204204601F0E6FC7049086047496D489A
:10417000006801F03FFD054601F0A0FC0A2190FB1C
:10418000F1F201FB1204204601F0D4FC68490860FA
:1041900000216548006801F05DFC22D06448006899
:1041A00001F0A8FCC4B26148006801F0A3FCC5B2EC
:1041B0005D48006801F09EFCC6B252480078524942
:1041C0000978524A1278484BCDE90054CDE90221D2
:1041D00004901A7AD9799879334600E037E0FEF7EF
:1041E000B7FB54A0FCF748F80120FEF777FF3E49E3
:1041F000086A4FF07E5101F0FBFD04462448016837
:10420000204601F0C3FD22D23749086A1F4901F058
:10421000EFFD04461E480168204601F0B7FC16D2A7
:104220000020364908703C4908703C4908804249E2
:1042300008800A20FEF710FF002040490880354919
:1042400008703FA0FCF718F80120FEF747FFA7E031
:10425000A5E000213B48FEF79FF9FFF777FD01201D
:10426000394908700020FEF7F7FE0020FEF7FAFE3D
:104270003648006808B901206BE069E00018014089
:10428000000C0140800400207C0000200000204140
:10429000680000200000C842700000207400002068
:1042A000780000200D0A20CBAECEC2B6C8203D203B
:1042B00025662056200D0A000A0D00000D0A20BFB9
:1042C000D5C6F8CEC2B6C8203D20256620A1E6207E
:1042D0000D0A00000D0A20BDC7B6C83D2025642088
:1042E000A1E6200D0A000000900400200014004008
:1042F000020000203333F33F8D0000200000002037
:10430000040000204C000020500000205400002039
:10431000310A000003000020010000208600002078
:10432000320A0000080000200C00002010000020CD
:1043300014000020330A00008400002088000020C0
:10434000340A00000010004094000020B88121428F
:1043500000202F4908602F48D0F8800108B90120BB
:1043600000E000202A49383908609620FEF7B6FEA2
:104370002948007829490A7829490978294B1B7866
:10438000CDE90131CDE9032027480078274C009082
:104390002378274C227AE179A079FEF7D9FA58E7F9
:1043A00024492548006801F0F1FCFFF451AF29E0F1
:1043B000FFF7CCFC6420FEF791FE012291031F4819
:1043C000FDF75BFB01201249383908601C48006882
:1043D00001F090FBC4B21B48006801F08BFBC5B232
:1043E0001948006801F086FBC6B20020CDE9014003
:1043F00003900F4B009504901A7AD9799879334637
:10440000FEF7A6FA114800780128D1D05BE500003C
:10441000B8812142008021424C0000205000002041
:10442000540000207800002074000020700000205C
:10443000900400200000404268000020000C014071
:1044400014000020100000200C0000208B00002031
:1044500008B501210420FDF731FC7020ADF8000003
:1044600010208DF8030003208DF8020069460748EC
:10447000FDF724FA012220210448FDF7FEFA01226B
:1044800010210248FDF7F9FA08BD000000080140BC
:1044900010B5402000F052F88F2000F04FF8C020F7
:1044A00000F04CF8002404E0002000F023F8601C29
:1044B000C4B2102CF8DB10BD70B50024002513E049
:1044C0006410002220210A48FDF7D7FA402108484D
:1044D000FDF7C8FA08B144F0800401222021044805
:1044E000FDF7CBFA681CC5B2082DE9DB204670BD8C
:1044F0000008014070B5044600251AE00022202182
:104500000D48FDF7BAFA04F0010028B1012240215C
:104510000948FDF7B2FA04E0002240210648FDF701
:10452000ACFA6410012220210348FDF7A6FA681CAA
:10453000C5B2082DE2DB70BD0008014010B504468D
:10454000002210210548FDF798FA2046FFF7D2FF18
:10455000012210210148FDF790FA10BD000801402A
:1045600070B505460C46002210210748FDF785FA74
:104570002846FFF7BFFFE0B2FFF7BCFF0122102182
:104580000148FDF77AFA70BD0008014010B54420DB
:10459000FFF7D4FF00240DE06100C031C8B2002154
:1045A000FFF7DEFF6100C131C8B20021FFF7D8FF7D
:1045B000601CC4B2082CEFDB10BD10B504464420CB
:1045C000FFF7BCFF601E00228240D1B2C020FFF77F
:1045D000C7FF601E00228240D1B2C220FFF7C0FF99
:1045E000601E00228240D1B2C420FFF7B9FF601ED6
:1045F00000228240D1B2C620FFF7B2FF601E002227
:104600008240D1B2C820FFF7ABFF601E002282407B
:10461000D1B2CA20FFF7A4FF601E00228240D1B2AF
:10462000CC20FFF79DFF601E00228240D1B2CE2039
:10463000FFF796FF10BD10B54420FFF77FFF002461
:1046400007E06100C131C8B20021FFF789FF601C9B
:10465000C4B2082CF5DB10BD10B504464420FFF7AA
:104660006DFF002000EBC4001E4A115CC020FFF764
:1046700077FF012000EBC4001A4A115CC220FFF74B
:104680006FFF022000EBC400164A115CC420FFF744
:1046900067FF032000EBC400124A115CC620FFF73D
:1046A0005FFF042000EBC4000E4A115CC820FFF736
:1046B00057FF052000EBC4000A4A115CCA20FFF72F
:1046C0004FFF062000EBC400064A115CCC20FFF728
:1046D00047FF072000EBC400024A115CCE20FFF721
:1046E0003FFF10BD9600002070B504460D464420E3
:1046F000FFF724FF002000EBC4003B4A105C0022BF
:1047000002EBC502394B9A5C40EA0201C020FFF778
:1047100027FF012000EBC400334A105C012202EBAA
:10472000C502324B9A5C40EA0201C220FFF718FF33
:10473000022000EBC4002C4A105C022202EBC502EE
:104740002A4B9A5C40EA0201C420FFF709FF0320CC
:1047500000EBC400244A105C032202EBC502234B89
:104760009A5C40EA0201C620FFF7FAFE042000EB43
:10477000C4001D4A105C042202EBC5021B4B9A5C6C
:1047800040EA0201C820FFF7EBFE052000EBC40061
:10479000154A105C052202EBC502144B9A5C40EAF4
:1047A0000201CA20FFF7DCFE062000EBC4000E4A1F
:1047B000105C062202EBC5020C4B9A5C40EA020137
:1047C000CC20FFF7CDFE072000EBC400064A105CAA
:1047D000072202EBC502054B9A5C40EA0201CE209B
:1047E000FFF7BEFE70BD0000EE0000209600002026
:1047F00070B504460D4616464420FFF79FFE002084
:1048000000EBC400524A105C002202EBC502514B7F
:104810009A5C1043002202EBC6024F4B9A5C40EABE
:104820000201C020FFF79CFE012000EBC400484AB3
:10483000105C012202EBC502464B9A5C1043012238
:1048400002EBC602444B9A5C40EA0201C220FFF729
:1048500087FE022000EBC4003D4A105C022202EBFE
:10486000C5023C4B9A5C1043022202EBC6023A4B53
:104870009A5C40EA0201C420FFF772FE032000EBBD
:10488000C400334A105C032202EBC502314B9A5C30
:104890001043032202EBC6022F4B9A5C40EA02014E
:1048A000C620FFF75DFE042000EBC400284A105C20
:1048B000042202EBC502274B9A5C1043042202EB50
:1048C000C602254B9A5C40EA0201C820FFF748FE69
:1048D000052000EBC4001E4A105C052202EBC50255
:1048E0001C4B9A5C1043052202EBC6021A4B9A5CE1
:1048F00040EA0201CA20FFF733FE062000EBC400A5
:10490000134A105C062202EBC502124B9A5C10435C
:10491000062202EBC602104B9A5C40EA0201CC2050
:10492000FFF71EFE072000EBC400094A105C0722B7
:1049300002EBC502074B9A5C1043072202EBC6024A
:10494000054B9A5C40EA0201CE20FFF709FE70BDDC
:1049500046010020EE000020960000202DE9F041E5
:1049600004460D4616461F464420FFF7E7FD00208B
:1049700000EBC4006B4A105C002202EBC5026A4BDC
:104980009A5C1043002202EBC602684B9A5C10430B
:10499000002202EBC702664B9A5C40EA0201C0208B
:1049A000FFF7DEFD012000EBC4005E4A105C01222F
:1049B00002EBC5025C4B9A5C1043012202EBC6027B
:1049C0005A4B9A5C1043012202EBC702584B9A5C87
:1049D00040EA0201C220FFF7C3FD022000EBC40041
:1049E000504A105C022202EBC5024F4B9A5C104306
:1049F000022202EBC6024D4B9A5C1043022202EBEC
:104A0000C7024B4B9A5C40EA0201C420FFF7A8FDA5
:104A1000032000EBC400434A105C032202EBC502F2
:104A2000414B9A5C1043032202EBC6023F4B9A5C57
:104A30001043032202EBC7023D4B9A5C40EA02019D
:104A4000C620FFF78DFD042000EBC400354A105C42
:104A5000042202EBC502344B9A5C1043042202EBA1
:104A6000C602324B9A5C1043042202EBC702304B61
:104A70009A5C40EA0201C820FFF772FD052000EBB6
:104A8000C400284A105C052202EBC502264B9A5C42
:104A90001043052202EBC602244B9A5C1043052208
:104AA00002EBC702224B9A5C40EA0201CA20FFF7E0
:104AB00057FD062000EBC4001A4A105C062202EBE8
:104AC000C502194B9A5C1043062202EBC602174B33
:104AD0009A5C1043062202EBC702154B9A5C40EA2F
:104AE0000201CC20FFF73CFD072000EBC4000D4A7B
:104AF000105C072202EBC5020B4B9A5C10430722A5
:104B000002EBC602094B9A5C1043072202EBC70274
:104B1000074B9A5C40EA0201CE20FFF721FDBDE879
:104B2000F0810000A602002046010020EE000020D7
:104B3000960000202DE9F04104460D4616461F461A
:104B4000DDF818804420FFF7F9FC002000EBC400DA
:104B5000834A105C002202EBC502824B9A5C104330
:104B6000002202EBC602804B9A5C1043002202EB4B
:104B7000C7027E4B9A5C1043002202EBC8027C4BBA
:104B80009A5C40EA0201C020FFF7EAFC012000EB3A
:104B9000C400734A105C012202EBC502714B9A5C9F
:104BA0001043012202EBC6026F4B9A5C10430122B4
:104BB00002EBC7026D4B9A5C1043012202EBC80264
:104BC0006B4B9A5C40EA0201C220FFF7C9FC02204D
:104BD00000EBC400624A105C022202EBC502614B8A
:104BE0009A5C1043022202EBC6025F4B9A5C1043B0
:104BF000022202EBC7025D4B9A5C1043022202EBD9
:104C0000C8025B4B9A5C40EA0201C420FFF7A8FC93
:104C1000032000EBC400524A105C032202EBC502E1
:104C2000504B9A5C1043032202EBC6024E4B9A5C37
:104C30001043032202EBC7024C4B9A5C1043032241
:104C400002EBC8024A4B9A5C40EA0201C620FFF719
:104C500087FC042000EBC400414A105C042202EBF4
:104C6000C502404B9A5C1043042202EBC6023E4B45
:104C70009A5C1043042202EBC7023C4B9A5C10433F
:104C8000042202EBC8023A4B9A5C40EA0201C820B7
:104C9000FFF766FC052000EBC400314A105C0522DA
:104CA00002EBC5022F4B9A5C1043052202EBC602B1
:104CB0002D4B9A5C1043052202EBC7022B4B9A5CEA
:104CC0001043052202EBC802294B9A5C40EA02011C
:104CD000CA20FFF745FC062000EBC400204A105C08
:104CE000062202EBC5021F4B9A5C1043062202EB20
:104CF000C6021D4B9A5C1043062202EBC7021B4BF7
:104D00009A5C1043062202EBC802194B9A5C40EAF7
:104D10000201CC20FFF724FC072000EBC400104A5E
:104D2000105C072202EBC5020E4B9A5C104307226F
:104D300002EBC6020C4B9A5C1043072202EBC7023F
:104D40000A4B9A5C1043072202EBC802084B9A5C9C
:104D500040EA0201CE20FFF703FCBDE8F08100002D
:104D6000FE020020A602002046010020EE000020E6
:104D70009600002070B504460D464420FFF7DEFB88
:104D8000002D3FD1002000EBC4001F4A115CC12060
:104D9000FFF7E6FB012000EBC4001B4A115CC320B7
:104DA000FFF7DEFB022000EBC400174A115CC520B0
:104DB000FFF7D6FB032000EBC400134A115CC720A9
:104DC000FFF7CEFB042000EBC4000F4A115CC920A2
:104DD000FFF7C6FB052000EBC4000B4A115CCB209B
:104DE000FFF7BEFB062000EBC400074A115CCD2094
:104DF000FFF7B6FB072000EBC400034A115CCF208D
:104E0000FFF7AEFB70BD00005603002010B586B062
:104E10000446012144F20400FCF750FF4FF40070F7
:104E2000ADF8140003208DF8160018208DF8170037
:104E300005A91C48FCF742FD4FF48060ADF8140052
:104E400004208DF8170005A91648FCF737FD25202A
:104E50008DF8000003208DF801008DF8020001207C
:104E60008DF803006846FCF7B9FE01940020ADF808
:104E70000800ADF80A00ADF80C00ADF810000C20E9
:104E8000ADF80E0001A90848FEF772F8012240F2C1
:104E900025510548FEF746F801210348FEF70CF8B6
:104EA00006B010BD000801400038014010B50029CF
:104EB0000AD00878002807D005487844FBF720FE80
:104EC000002801D0002010BD0248784410BD000029
:104ED000DA100000D210000021F00042A2F160526E
:104EE000B2F5801F01F0004328BFD2F17F6C0BD9CF
:104EF0005FEA001C43EAC20242EB507018BF7047E1
:104F000028BF20F001007047B2F5801FBCBF1846D3
:104F100070474FEA410C1CF5001F02D2084600F012
:104F200030BF70B500F0FCFA00000089FFF7F6BF53
:104F30004FF00040A0F580007047000010B591EAE6
:104F4000030F48BF83F0004300F14683841A71EBDE
:104F5000030C05D2121943EB0C03001B61EB0C018F
:104F6000DFF824E14FEA1154A4EB135C1EEA430F6F
:104F700018BF9EEA445F73D023EA0E03DCF1200ED3
:104F800021EA045143F4801332D322FA0CFE10EBD1
:104F90000E0023FA0CFE41EB0E01CCF1200E03FAB9
:104FA0000EFE10EB0E0051F10001B1F5801FCCF1A7
:104FB000200E32D201EB045112FA0EF2BDE810407D
:104FC00058BF7047401C38BF5FEA420218BF7047A5
:104FD000002814BF20F0010041F100014FEA410315
:104FE00013F5001F38BF7047A1F1C04100F0E6BAC9
:104FF000012A43EB0302ACF1200CDCF11F0E32BF9F
:105000004FF0000E23FA0CF310EB030041EB0451B8
:10501000B4EB115FD0D0A1EB045101F58011490828
:105020005FEA300001EB04510ED350F1000038BFAD
:1050300012FA0EFE08D1BDE81040C9E7401C38BF87
:105040005FEA4202CAD1C3E7BDE810404FEA41031C
:1050500013F5001F38BF7047A1F1C04100F0AEBA90
:105060009EEA445F08D011EA5E0FBDE8104004BF1D
:1050700001F0004100207047BDE8104070B500F01D
:105080004FFA00BF64FBBE3E0000E0FF491058BF6E
:10509000C1F140415B1058BFC3F140438B42EFF375
:1050A000008070472DE9C04130B4DFF8A0C23CEA6F
:1050B000111418BF3CEA131400F0EC8081EA0305D8
:1050C0001CEA111444EAD57418BF1CEA131500F049
:1050D000C780A4EB05044FF0004545EAC12145EA2D
:1050E000C32341EA505143EA525304F17F74994279
:1050F00004F500344FEAC0204FEAC22208BF9042B4
:1051000000F09C804FEA13650FF24016765D4FEA7F
:10511000134506FB05F7C7F1807706FB07F74FEA53
:10512000D737A7FB03687642C8F58038A7FB06CEC1
:1051300038BFA8F1010807FB08E64FF0000EA6FBF8
:10514000028CE6FB03CEDCF1000CCEF1004E38BF42
:10515000AEF1010EA6FB0C584FF000074FF0000512
:10516000E6FB0E87A1FB08C6A0FB07CE16EB0E06DA
:1051700045F10005E1FB076515F1E04E7EBFA4F5A2
:1051800080345FEA46066D4116F1800745F100055F
:105190004FEA17274FEA066647EA0567A6F1DE469B
:1051A000B6F1805F4FEA15251FD9384624F0010C6F
:1051B00005EBC471BCF1FE6F01EB0C1102D8F0BC21
:1051C000BDE8008124425CBF01F5801E9EEAC47FD9
:1051D00002D4F0BCBDE80081244238D4F0BCA1F177
:1051E000C041BDE8004100F0E9B94FEAD22242EAED
:1051F00043524FEAD323A7FB02864FEAD02040EA6E
:10520000415007FB03661EEA0E0F4FEAD12105FB52
:10521000026658BFA6EB0056B6EB00564FEA520E98
:105220004EEAC37E18EB0E0E56EB530EBDD518EBAF
:1052300002085E417F1C55F10005B6E74FF480156A
:105240004FF000074FF000064FF00008ADE7F0BC4C
:105250004FF0000001F1C04101F00041BDE80081C4
:1052600011EA0C1F0CEA131500D00CE013EA0C1F16
:1052700000F025804FF00000F0BC81EA030101F04E
:105280000041BDE80081F0BCBDE8004181EA0301B6
:1052900000F094B9F0BCBDE8004170B500F040F9F1
:1052A000097EFC3E00F007B881EA03014FF00000E0
:1052B00001F00041704781EA030100F07FB9F0BCC2
:1052C000BDE800414FF0000021497047FFFDFBF9A8
:1052D000F7F5F4F2F0EEEDEBE9E8E6E4E3E1E0DE29
:1052E000DDDBDAD8D7D5D4D3D1D0CFCDCCCBCAC89B
:1052F000C7C6C5C4C2C1C0BFBEBDBCBBBAB9B8B7C2
:10530000B6B5B4B3B2B1B0AFAEADACABAAA9A8A8B4
:10531000A7A6A5A4A3A3A2A1A09F9F9E9D9C9C9B82
:105320009A9999989797969595949393929191902D
:105330008F8F8E8E8D8C8C8B8B8A898988888787BE
:105340008685858484838382828181800000FF0733
:105350000000F87F51EA030C17D41CF5801F58BFDA
:10536000BCF5801F00F10680994218BF704708BF46
:105370009042704707D711F5801F58BF13F5801F63
:1053800019D499427047894270471CF5801F08D58F
:10539000BCF5801FF7D58B4218BF704708BF82420B
:1053A00070474FF4001C1CEB410F38BF1CEB430F40
:1053B00001D28B42704770B500F0B2F892244900D8
:1053C0004FF000514FF08053FFF760BEDFF848C147
:1053D00070B51CEA111E1EBF1CEA13159EEA0C0FC5
:1053E00095EA0C0F00F06F8081EA030423EA4C1366
:1053F0004EEAD47E21EA4C1141F4801143F480132B
:10540000AE44A1FB024CA0FB0365AEF17F7E3619D2
:1054100055EB0C05A1FB034C4CF10003A0FB021C57
:1054200016EB0C06654153F10003094218BF46F024
:10543000010613F4007F0BD14FEA03314FEA053028
:10544000340341EA155140EA16506FF003020AE0B6
:105450004FEAC3214FEAC520F40241EA555140EA20
:1054600056506FF0020202EB2E4201EB025585EA24
:10547000CE710AD05FEA440C18BF24F0004450F10A
:10548000000041F1000120EAD47040F2FE7C624548
:1054900000D270BDA84214BF4FF080444FF040448A
:1054A000002E08BF0024BEF1806FA8BFA1F1C0414B
:1054B000BDE8704080F282804FF0000001F1C041F1
:1054C00001F0004170479EEA0C0F0CEA131518BF5B
:1054D00095EA0C0F06D04FF0000081EA030E0EF0A3
:1054E000004170BD00F01CF88900013E00F007B8D3
:1054F00000F009B84FEA430C5FEA5C5C08D081EA2F
:10550000030100F05BB84FEA410C5FEA5C5CF6D146
:105510004FF00000014970470000FF070000F87FCE
:105520000EF1020E2EF0030E5EF8046B364205D427
:10553000012A43EB030515F5001F12D8012841EBA2
:10554000010C1CF5001F0CD80ED14FEAD17C15F5CB
:10555000001F0CEB4C0C0CF1020C08BF4CEBD37C85
:1055600004E04FF0080C01E04FEAD37C0CEB4C0553
:1055700026FA05F606F00706B6F1040C06D20EEB85
:10558000860CBDE870404CF0010C6047DFE80CF081
:10559000090B02024FF000414FF00000A1F500217D
:1055A00070BD19461046012851EB010418BFD4F50F
:1055B000001484BF002001F0004170BD0808A0F570
:1055C00000114FEA3101704710B591EA030F48BF4F
:1055D00083F000433FF5BAAC841A71EB030C07D299
:1055E00012198CF0004C43EB0C03001B61EB0C0117
:1055F000DFF8A4E14FEA1154A4EB135C1EEA430F59
:1056000018BF9EEA445F00F0B08023EA6E03524266
:1056100021EA0451C3EB6E0338BF5B1EDCF1200EA0
:1056200025D322FA0CFE10EB0E0043FA0CFE41EBE0
:105630000E01CCF1200E03FA0EFE10EB0E0051F11C
:105640000001CCF1200E29D412FA0EF201EB045124
:10565000BDE8104058BF7047401C1CBFB2F1004F5E
:10566000704700280CBF491C20F00100704712EB66
:10567000020E43EB030218BF4FF0010E4EEA420246
:10568000ACF1200CDCF11E0E54D943FA0CFE10EBE9
:105690000E0051F1FF31CCF11E0ED5D50EF1010EE9
:1056A00012FA0EFE404141EB010101EB445C5FEA5E
:1056B0005C5C10D910EBDE7001EB045138BFBEF119
:1056C000004FBDE8104018BF704700280CBF491CB0
:1056D00020F00100704730D24FEAD42C11F50011B0
:1056E00024F400641BD0B1FA81F20B3AA41AA41E70
:1056F000D2F12003914030FA03F31943904001EBBB
:10570000CC71002C01EB0451BDE81040A8BF7047DC
:1057100001F1C0414FF0000001F000417047B0FAC4
:1057200080F310FA03F100D110BDE41A173C4805CC
:10573000C90AE4E701EB045110BD491001EB045123
:10574000BDE810404FEA300002E04FF00001704722
:105750004A0008BF0042F8D0B2F5001F28BF7047CA
:1057600001F000414FF0000070479EEA445F07D00F
:1057700011EA5E0FBDE8104004BF00210020704711
:10578000BDE8104070B5FFF7CBFE00BF40DFF63E2E
:1057900083F00041104670470000E0FF43004FEAED
:1057A000D30C4FEA3C0C43401FBF40070CF1605143
:1057B00013F0FE4F70471CF0006F03D100200CF077
:1057C000004170470CF0004343EA507010B540EAC6
:1057D000CC0000F090FA00BF000000924FEA0001F8
:1057E000FFF7ECBE4FF000414FF00000A1F50021A3
:1057F0007047000090EA010F48BF81F0004100F1BE
:10580000FE82421A3CBF801A89184FEAD0524FF0EC
:105810007F4C1CEA410FA2EBD15318BF9CEA026FE8
:1058200000F03B804FF0004C4CEA00204CEA012194
:1058300021FA03FC10EB0C0C1ED202F1FF325FEADE
:105840001C2040EBC25038BF70471CF07F0F4FEA5E
:10585000400C18BFBCF17F4F38BF7047C3F1200325
:10586000994008BF20F00100BCF17F4F38BF70475E
:10587000A0F1C04000F085BA4FEA3C00000A40EBBE
:10588000C25028BF1CF0FF0F4FEA400CE6D018BFF3
:10589000BCF17F4F38BF7047EAE79CEA026F05D042
:1058A00010EA5C0F08BF00F00040704710B500F030
:1058B00022FA00BF64FBBE3E401058BFC0F140401A
:1058C000491058BFC1F140418142EFF30080704759
:1058D0004FF47F0C1CEAD0121EBF1CEAD11392EACF
:1058E0000C0F93EA0C0F00F0858090EA010F48BF7F
:1058F00042F4807240F4000C41F400002CF07F412F
:1059000020F07F4000B58142A2EB03020FF2081C99
:10591000ACEB504EC0F100009EF800E04FEA4E0E96
:1059200000FB0EFC38BF49004FEA2C1C02F5FA02BE
:105930000CFB0EF34FEACE1E4FEA112C4FEAC121A9
:105940000EEB635E42EB22420EFB0CFC4FEA1C5353
:1059500000FB03114FEA112C4FEA01310EFB0CFC46
:105960004FEADC4C00FB0C11C14228BF09184CEB7C
:1059700003335DF804EB10EB410143EBC250B2F589
:105980007C0F38BF704729D512F0F00F1CBF00F113
:10599000C04000F000407047008182838485868784
:1059A00088898B8C8D8E8F919293959697999A9CDE
:1059B0009D9FA0A2A3A5A7A8AAACAEB0B2B3B5B74D
:1059C000B9BCBEC0C2C5C7C9CCCED1D4D7D9DCDF23
:1059D000E2E6E9ECF0F3F7FAFE0000004FEA400CD3
:1059E0000CF1807CBCF17E4F28BF7047B0F1C04005
:1059F00000F0C7B990EA010F0CEAD11348BF42F496
:105A00008072624538BF634507D213F47F0F16D00A
:105A100080EA010000F00040704710B500F06BF91B
:105A2000097EFC3E00F005B880EA010000F000406D
:105A3000704780EA010000F0004000F0A2B912F4C3
:105A40007F0F04BF0248704780EA010000F099B957
:105A50000000C07F50EA010C00F113801CF5000F1C
:105A600058BFBCF5000F01D48842704707D710F526
:105A7000000F58BF11F5000F15D4884270478942B6
:105A800070471CF5000F04D5BCF5000FF7D5814217
:105A900070474FF0807C1CEB400F38BF1CEB410F70
:105AA00001D28142704710B500F025F992244900D7
:105AB0004FF000504FF08051FFF7FEBE41000B0E3B
:105AC000D3F19E0208D950F400034FEA032323FACE
:105AD00002F048BF4042704710B500F00CF900BF1B
