:020000040800F2
:10000000001700202D0200082D15000869140008B3
:10001000291500089D120008CF28000800000000E4
:100020000000000000000000000000003117000880
:10003000A112000800000000191600089918000815
:10004000470200084702000847020008470200086C
:10005000470200084702000847020008470200085C
:10006000470200084702000847020008470200084C
:10007000470200084702000847020008470200083C
:10008000470200084702000847020008470200082C
:10009000470200084702000847020008470200081C
:1000A000470200084702000847020008470200080C
:1000B00047020008D51B0008470200084702000855
:1000C00047020008470200084702000847020008EC
:1000D00047020008AD260008470200084702000852
:1000E00047020008470200084702000847020008CC
:1000F00047020008470200084702000847020008BC
:1001000047020008470200084702000847020008AB
:100110004702000847020008E91C0008A11D00086A
:10012000470200084702000847020008470200088B
:1001300000F002F800F06BF80AA090E8000C82448E
:100140008344AAF10107DA4501D100F060F8AFF26B
:10015000090EBAE80F0013F0010F18BFFB1A43F0A5
:1001600001031847E45400000455000010F8013B57
:100170000A4413F0030408BF10F8014B1D1108BF17
:1001800010F8015B641E05D010F8016B641E01F8C5
:10019000016BF9D1002D15D010F8014B03F00C03C1
:1001A0000C2BA1EB04040ABF10F8013BA4EB831451
:1001B000A4EB032405F1010314F8016B5B1E01F8A5
:1001C000016BF9D5914238BF10F8013BD1D370478C
:1001D0000023002400250026103A28BF78C1FBD850
:1001E000520728BF30C148BF0B607047662905F031
:1001F000DE81002070471FB500F0AAFA040000203D
:10020000002104F013FAE0601FBD10B510BD00F02E
:10021000BFFB1146FFF7EFFF03F0DCFA00F0DDFB58
:1002200003B4FFF7F2FF03BC02F067FB0948804705
:1002300009480047FEE7FEE7FEE7FEE7FEE7FEE7C8
:10024000FEE7FEE7FEE7FEE704480549054A064BE0
:10025000704700009D1800083101000800050020CB
:100260000017002000070020000700207047000052
:100270000FB4044910B503AA029800F057FA10BC55
:100280005DF814FB240000202DE9F0410E460446E1
:10029000002020622046E168884730B3252805D039
:1002A000D4E901219047206A401CF2E7E16820462A
:1002B00000278847050018D0A5F14100192802D869
:1002C00020354FF400673246294620462760FFF765
:1002D0008DFF40B1012804D0F61D26F00706083630
:1002E000D8E7361DD6E72846DAE7206ABDE8F08170
:1002F000704770477047704710B500F02DFA0068DE
:1003000010BD10B5044600F027FA046010BD704718
:100310002DE9FF4F0C461E464FF0FF378BB0D2E958
:100320000001DDF860800A908A46C1F30A5505B9DC
:100330003D46002108464FF00000BAF1000F00F4DE
:10034000400005DA00EB80004FF4400101EA500064
:100350004FEA9059B9F1010F00DDB9460A9850EA09
:100360004A000ED044F61050A5F2FF3545432F1435
:10037000B8F1000F1ED07542291E1EDDC9F1000222
:100380001CE0B8F1010F4FF0000001D0302103E074
:10039000F24305E02154401CB042FBDB3046002212
:1003A000002121540B99C1F80880C1E900200FB049
:1003B000BDE8F08FBD1B6D1CDEE74A4600DA6942DE
:1003C00006A800F06BFA06AB93E8070003AB83E8DE
:1003D000070050460A9900F049FB8DE80700A0F598
:1003E00000501F3800900398002D0ADD42F21F01D3
:1003F0004A460844002303A90390684600F0B2FD72
:1004000009E0A0F500504A461F38002303A90390D5
:10041000684600F0BCFD8DE807000004000C03D026
:100420004FF0FF30410800E01046B8F1000F03D054
:100430000022009215461EE0751E05D400F090F9CA
:10044000303262556D1EF9D5B3460122084302D001
:1004500000227F1C04E02078302801D100227F1E7A
:10046000002A099784D01DE0112D07DA00F078F9F1
:10047000303262556D1C50EA0102F5D1084302D0BA
:100480000098C8B10EE00021681E05E0235C625CA4
:1004900063542254401E491C8142F7DBAB46A81B23
:1004A000401E0990002004F80B000B98099AC0F830
:1004B0000880C0E9002B7AE711264FF0000857E7C3
:1004C0002DE9F04F88460446D21D22F0070191B075
:1004D000D1E90001CDE90A0102F0FBF902460B98CF
:1004E000C00F01D02D2007E02068810701D52B2007
:1004F00002E0202101EAC000032A099001D0072A66
:1005000005DB03464146204600F088F90BE12078E0
:10051000800601D5E06900E00620B8F1650F81464C
:1005200006D0B8F1660F18D0B8F1670F70D131E07E
:100530000020B9F1110F009001DB112301E009F156
:1005400001030AAA01A90CA8FFF7E2FEDDE90C707D
:10055000002609F10105834647E001204B46009043
:100560004FF000470AAA01A90CA8FFF7D1FEDDE968
:100570000DB00C995D46002610B909F101000D1867
:10058000B9EB050003D4C0F1FF3609F10105A5EB75
:1005900009002BE0B9F1010F01DA4FF00109002049
:1005A000B9F1110F0090484601DD112300E0034628
:1005B0000AAA01A90CA8FFF7ABFEDDE90C704D46B5
:1005C00000268346207800070AD4AB4500DA5D4652
:1005D00001A8012D04DD411911F8011C302907D0B3
:1005E0004F4502DA17F1040F04DA012082460FE0CA
:1005F0006D1EEEE7002F02DCED1B3E4403E0781C8D
:10060000A84200DD7D1CB81B00F1010A4FF0004735
:100610002078000703D4AA4501DB4FF0FF3A002100
:10062000B7F1004F0DF143088DF8431024D002209C
:100630002B23002F01DA7F422D230A21021EA0F175
:10064000010000DC5FB197FBF1FC97FBF1F201FBCD
:100650001C7C17460CF1300C08F801CDEEE7A8F130
:10066000010003702188090501D5452100E06521BD
:10067000A0F1010800F8011C09980FA9A1EB0807D7
:10068000FF1D00B10120411901EBEA70A169384456
:10069000081A401EA0612078C00602D42046AFF39D
:1006A0000080099828B1D4E901219047206A401CB4
:1006B00020622078C00622D52046AFF300801EE0DD
:1006C000002E04DBB34502DD01A8805D00E0302090
:1006D000D4E901219047206A401C2062761CAAF1CF
:1006E00001005FEA000A0AD100F032F8C068016830
:1006F000405CD4E901219047206A401C2062281EFA
:10070000A5F10105DCDC07E0D4E9012118F8010BB3
:100710009047206A401C2062381EA7F10107F3DCD5
:100720002046AFF30080032011B041E6074B70B5BF
:100730000D467B4400F05FF80446284600F020F99F
:1007400010B14FF0FF3070BD204670BD5722000041
:1007500000487047C004002000487047A0040020F3
:1007600030B5B0F10A024FEA900E71F100034EEA83
:10077000817EB0EB0E0061EB91014FEA101E4EEA54
:10078000017E10EB0E0041EB11114FEA102E4EEAE4
:10079000016E10EB0E0041EB11214FEA104E4EEAB4
:1007A000014E10EB0E0041EB1141401841F10001E8
:1007B0004FEAD00040EA41704FEAD10110EB8005CA
:1007C0004FEA810444EA907444EB01046D1944EB50
:1007D0000404521BA3414FF0000348BF0A3200D566
:1007E00030BD401C41F1000130BD000001694A1CD0
:1007F00002610878704700B58FB0CDE90131002162
:10080000059105497944CDE9031011466846FFF783
:100810003BFD0FB000BD0000E5FFFFFF2DE9F041FB
:100820001F46044603260168072A01F4006004DB22
:1008300008B116A505E016A503E008B115A500E06E
:1008400015A521F010002060A069C01EA0610FB1A5
:10085000401EA0612046AFF300804FB1D4E90121D2
:1008600038469047206A401C2062C01C206206E087
:10087000206AFAE7D4E9012115F8010B9047761EAA
:10088000F8D22046AFF30080BDE8F0814E414E0023
:100890006E616E00494E4600696E66002DE9F047B4
:1008A000814616468AB0354878440DC88DE80D005B
:1008B00032487844801C03AC0DC884E80D0041F632
:1008C0009B300844372190FBF1F290FBF1F5A5F144
:1008D000800501FB12041B3C02D56442012000E0AC
:1008E0000020DFF898A080460027FA44AAF1BE0A4B
:1008F0000EE0E0070AD03246684607EB47010123C5
:100900000AEB810100F043FB8DE8070064107F1CB7
:10091000002CEED1194F7F44AE3F19E0E80715D007
:1009200007EB04100DF1180A90E80E008AE80E009B
:10093000C068F04201D1981908903246012306A9F7
:1009400003A800F024FB03AB83E807006D10641CD0
:10095000002DE3D14FF0010332466946B8F1000F94
:1009600003A802D000F0FEFA01E000F010FBC9E994
:100970000001C9F808200AB0BDE8F087844D0000E6
:10098000007B00F08000704700487047A004002002
:100990007546FFF7F9FFAE4605006946534620F05D
:1009A0000700854618B020B5FFF74EFCBDE8204093
:1009B0004FF000064FF000074FF000084FF0000B1B
:1009C00021F00701AC46ACE8C009ACE8C009ACE8CE
:1009D000C009ACE8C0098D46704710B50446AFF3B6
:1009E00000802046BDE81040FFF71ABC4FF0013CE4
:1009F00050F8042B51F8043B9A4221D1A2EB0C038E
:100A0000934313EACC1317D150F8042B51F8043B4D
:100A10009A4215D1A2EB0C03934313EACC130BD1EA
:100A200050F8042B51F8043B9A4209D1A2EB0C0375
:100A3000934313EACC13DBD04FF00000704700BFA4
:100A4000D01A01BAB1FA81F101F0180122FA01F0CD
:100A5000CB40C1F12001DBB2C0B2C01A2CFA01F3C5
:100A6000D11A914311EAC311E6D170475FEA400CF5
:100A700008BF91F0000F4FEA8C234FEAC12243EAEE
:100A800051514FEA1C5018BF00F5F0404FEA3000BA
:100A900018BF41F000415FEA6C5C00F02980BCF1B6
:100AA000FF3F08BF40F080407047130C06BF1204A0
:100AB0004FF0100C4FF0000C130E04BF12020CF19B
:100AC000080C130F04BF12010CF1040C930F04BFA8
:100AD00092000CF1020CD30F04BF52000CF1010C78
:100AE00011464FF00002A0F11F00A0EB0C00704770
:100AF00011F0004F08BF704731F000413FF4D5AF0F
:100B00000B0C06BF09044FF0100C4FF0000C0B0E3D
:100B100004BF09020CF1080C0B0F04BF09010CF112
:100B2000040C8B0F04BF89000CF1020CCB0F04BF27
:100B300049000CF1010CCCF12003A0EB0C0022FACF
:100B400003F302FA0CF241EA030100F101007047DD
:100B500020F07F4C80EA030023F07F47ACEB0703D3
:100B600003F57C5300F0004003F1FF032DE98049B9
:100B70004FEA154B09B44FEA144325EA0B4E24EA19
:100B800003480FF2042606EB132749083E785FEA74
:100B9000320203FB0667C7F5000707FB06F64FEABC
:100BA00054374FEAD64606F1020607FB066CCCF135
:100BB000005C4FEA1C472CEA074C07FB06F40CFBD1
:100BC00006F504EB15464FEA961634BF00204FF0A9
:100BD00000404FEAD13706FB07FC4FEA1C4C0CFBE8
:100BE0000BF7D21B03FB0CF761EB07010CFB0EF7B5
:100BF000B0EB074072EB17420CFB08F734BFA2EBD7
:100C00000742B2EB074261EB17414FEA0C444FEA4F
:100C1000910706FB07FC4FEA1C4C0CFB0BF7B0EBF3
:100C2000C74072EB573203FB0CF734BFA2EBC7424D
:100C3000B2EBC74261EB57310CFB0EF7B0EBC700CC
:100C400072EB57720CFB08F734BFA2EBC702B2EB92
:100C5000C70261EB5771039F4FEA816141EA92112C
:100C600004EBCC044FEAD1374FEA826206FB07FC63
:100C700042EA90124FEA80604FEA1C4C0CFB0BF7E3
:100C8000D21B03FB0CF761EB07010CFB0EF7B0EB7B
:100C9000074072EB17420CFB08F734BFA2EB074288
:100CA000B2EB074261EB17414FEA8C554FEA9107CF
:100CB00004EB9C2406FB07FC4FEA1C4C0CFB0BF7D7
:100CC000B0EBC74072EB573203FB0CF734BFA2EB1B
:100CD000C742B2EBC74261EB57310CFB0EF7B0EBEA
:100CE000C70072EB57720CFB08F734BFA2EBC702C8
:100CF000B2EBC70261EB577115EB4C254FEA8161EE
:100D000041EA92114FEA82624FEAD13742EA9012E9
:100D100006FB07FC44F100044FEA80604FEA1C4CDC
:100D20000CFB0BF7D21B03FB0CF761EB07010CFB71
:100D30000EF7B0EB074072EB17420CFB08F734BF1D
:100D4000A2EB0742B2EB074261EB174115EB1C1512
:100D50004FEA813141EA92414FEA823242EA9042BF
:100D60004FEA80304FEA0C7644F1000448EA03432E
:100D70004EEA0B484FF0000EB2EB080C71EB030784
:100D800024BF624639464EEB0E0E4FF0000B0018A2
:100D9000524149414BEB0B0BB2EB080C71EB0307D3
:100DA0007BF1000B24BF624639464EEB0E0E4FF02E
:100DB000000B0018524149414BEB0B0BB2EB080CF6
:100DC00071EB03077BF1000B24BF624639464EEB03
:100DD0000E0E51EA020718BF46F0010616EB0E761A
:100DE00055F1000254F1000103D5BDE88901BDE8C9
:100DF0000088BDE88901BDE80048B619524141EBC1
:100E00000101A3F10103704780807F7E7D7C7B7AA6
:100E10007978777676757473727171706F6E6E6DA6
:100E20006C6C6B6A6A69686867666665646463634C
:100E300062616160605F5F5E5E5D5D5C5C5B5B5AD2
:100E40005A5959585857575656555555545453533F
:100E500052525251515050504F4F4F4E4E4D4D4D9A
:100E60004C4C4C4B4B4B4A4A4A49494948484847E5
:100E70004747474646464545454444444443434323
:100E80004342424242414141002B9C4630D47700CC
:100E90002BD01CB54FEA370703B44FF010004FF0CA
:100EA0001001BAF1000F06D0BCF1000FDCBF40F01A
:100EB000080040F008014FF000000FBCBDE81040F2
:100EC0000BF1010BBBF1010F08BF5FEA170722BF4F
:100ED00012F1010211F101014FF0004143F1000351
:100EE00000F0004043EA00007047F9D35708D0E70C
:100EF00046EA064613F1400F4FEA16461FDD13F18E
:100F0000200FDFBF16430A46002120335B42BED0CC
:100F1000C3F1200746EA064602FA07F74FEA1646EB
:100F200046EA0706C3F1200722FA03F201FA07F79F
:100F300021FA03F14FF0000342EA0702A7E746EA6D
:100F4000020646EA06464FEA164646EA0106BCBFD6
:100F500046EA0646360C4FF000034FF000024FF011
:100F6000000194E72DE9804C9A46934670B491E8CD
:100F7000380007C831EA400C48BF34EA430C03D5B7
:100F8000FFF7E6FDFFF780FFF0BCBDE8008C2DE920
:100F9000804C9A46934670B491E8380007C810F028
:100FA000804F08BF13F0804F03D100F005F8FFF722
:100FB0006BFFF0BCBDE8008C20F07F4780EA0300A7
:100FC00023F07F4C07EB0C03A3F57C5300F00040AB
:100FD000A3F1FE0392F0000F00F0B38095F0000F34
:100FE00000F077802DE901494FEA11404FEA14469D
:100FF00021EA004800FB06FC24EA064708FB06F647
:1010000007FB08F800FB07F718EB06484CEB164CFB
:101010004FEA124B18EB07484FEA15464CEB1740C6
:1010200022EA0B4E0BFB06FC25EA06470EFB06F6F2
:1010300007FB0EFE0BFB07F71EEB064E4CEB164CA8
:101040004FF000061EEB074E4CEB174B18EB0B084E
:1010500040F1000018EB0E0B58EB000840F10000C7
:101060008F1A4FF000013CBFC943661B14BFB5EB9C
:10107000040C00213CBFC943F61B4FEA17444EEA5B
:101080008E0E27EA04454FEA1C4704FB07622CEA50
:10109000074C05FB07F70CFB05F604FB0CFC16EBF5
:1010A000074642EB174216EB0C4642EB1C421BEB89
:1010B000060658EB0202414146EA9E0601D5BDE80C
:1010C0000189B619524141EB0101A3F10103BDE8C9
:1010D00001894FEA14454FEA114724EA054621EAFF
:1010E000074C05FB07F406FB07F70CFB06F105FBB5
:1010F0000CFC11EB074144EB17444FEA124711EB8C
:101100000C4144EB1C4422EA074C05FB07F206FBAA
:1011100007F70CFB06F605FB0CFC16EB074642EB4B
:10112000174216EB0C4642EB1C456A1854F10001BD
:1011300048BF7047B619524141EB0101A3F10103C9
:10114000704795F0000F37D04FEA11424FEA14472D
:1011500021EA024624EA074C02FB07F106FB07F7E7
:101160000CFB06F402FB0CFC14EB074441EB1741AB
:101170004FEA154714EB0C4441EB1C4125EA074CA0
:1011800002FB07F506FB07F70CFB06F602FB0CFC5F
:1011900016EB074645EB174516EB0C4645EB1C4294
:1011A000121951F1000148BF7047B619524141EB85
:1011B0000101A3F1010370474FEA14454FEA1147BB
:1011C00024EA054621EA074C05FB07F106FB07F771
:1011D0000CFB06F24FF0000605FB0CFC12EB07427D
:1011E00041EB174112EB0C4251EB1C4148BF7047D9
:1011F000921841EB0101A3F10103704708B50121E9
:10120000082000F01BFA4FF48040ADF800001020D9
:101210008DF8030003208DF802006946044800F0B1
:1012200040F84FF48041024800F017F908BD000073
:10123000000C014008B501212C2000F0FFF98020AE
:10124000ADF8000010208DF8030003208DF8020097
:1012500069460F4800F025F84FF48070ADF80000A3
:1012600069460C4800F01DF84FF40060ADF800002E
:101270006946084800F015F82020ADF800006946DE
:10128000054800F00EF88021014800F0E6F808BD9E
:101290000014014000080140000C014000BFFEE7BF
:1012A00070472DE9F041024600250026002000236A
:1012B0000024002791F803C00CF00F0591F803C03B
:1012C0000CF0100CBCF1000F03D091F802C04CEAF6
:1012D000050591F800C0BCF1000F31D01468002062
:1012E0002BE04FF0010C0CFA00F3B1F800C00CEA4F
:1012F00003069E4220D183004FF00F0C0CFA03F737
:10130000BC4305FA03FC4CEA040491F803C0BCF1A9
:10131000280F06D14FF0010C0CFA00FCC2F814C0E3
:101320000AE091F803C0BCF1480F05D14FF0010C61
:101330000CFA00FCC2F810C0401C0828D1D314607D
:10134000B1F800C0BCF1FF0F34DD546800202EE07E
:1013500000F1080C4FF0010808FA0CF3B1F800C0D6
:101360000CEA03069E4221D183004FF00F0C0CFAC9
:1013700003F7BC4305FA03FC4CEA040491F803C0EC
:10138000BCF1280F05D100F1080C08FA0CF8C2F8DE
:10139000148091F803C0BCF1480F07D100F1080C8C
:1013A0004FF0010808FA0CF8C2F81080401C082819
:1013B000CED35460BDE8F081F0B50A460023002486
:1013C0000021002500F00046B6F1004F02D11D4E6D
:1013D000F16901E01B4E7168C0F3034583B200F46C
:1013E0004016B6F5401F08D121F07061154E7668A1
:1013F00026F07066134F7E6012E000F48016B6F59A
:10140000801F06D1032606FA05F4A14341F070615E
:1014100006E0460D360103FA06F6B14341F070616D
:1014200022B1460D360103FA06F6314300F00046BC
:10143000B6F1004F02D1034EF16101E0014E71603F
:10144000F0BD0000000001400246002093680B4000
:101450000BB1012000E000207047416170470AB1E4
:10146000016100E04161704700BFFEE710B500F088
:101470003DF8FFF7C3FEFFF7DDFE10BD4CF6CC4094
:1014800001490860704700000030004010B500F0CE
:1014900013F810BD70B505460C4645F2555000F0E6
:1014A0001FF8284600F010F8204600F013F800F06E
:1014B00003F8FFF7E3FF70BD4AF6AA200149086070
:1014C000704700000030004001494860704700004C
:1014D0000030004001498860704700000030004043
:1014E00001490860704700000030004008B5012144
:1014F000482000F0A3F88020ADF8000010208DF8FF
:10150000030003208DF8020069460548FFF7C9FE75
:101510000720ADF8000069460248FFF7C2FE08BD8B
:1015200000180140000C014000BFFEE7704708B5FD
:101530004FF4A06000F066F836208DF8000001201E
:101540008DF8010000208DF8020001208DF80300C5
:10155000684600F01FF837208DF8000000208DF855
:1015600001008DF8020001208DF80300684600F0AC
:1015700011F81D208DF8000002208DF801000020D8
:101580008DF8020001208DF80300684600F002F893
:1015900008BD000070B5002100230F22C47804B3F9
:1015A000154C246804F4E064C4F5E064210AC1F138
:1015B0000403CA40447804FA03F1847814402143B8
:1015C00009010E4C0678A155047804F01F0501248A
:1015D000AC4005786D11AD0005F1E025C5F800417E
:1015E00009E0047804F01F050124AC40044D06789E
:1015F000761145F8264070BD0CED00E000E400E0F7
:1016000080E100E002490143024A11607047000096
:101610000000FA050CED00E07047000029B1064A11
:10162000D2690243044BDA6104E0034AD26982437F
:10163000014BDA61704700000010024029B1064AF0
:1016400092690243044B9A6104E0034A926982431F
:10165000014B9A61704700000010024030B5002134
:101660000022002400232D4D6D6805F00C0121B1EE
:10167000042905D0082923D105E0294D056022E081
:10168000274D05601FE0254D6D6805F47012234D50
:101690006D6805F48034022505EB92421CB9214D9A
:1016A000554305600BE01D4D6D6805F400351DB117
:1016B0001C4D5543056002E0194D5543056002E09D
:1016C000174D056000BF00BF144D6D6805F0F001B7
:1016D0000909154D6B5C0568DD4045600F4D6D686F
:1016E00005F4E061090A104D6B5C4568DD408560DA
:1016F0000A4D6D6805F46051C90A0B4D6B5C456875
:10170000DD40C560054D6D6805F44041890B074D0E
:101710006B5CC568B5FBF3F5056130BD0010024098
:1017200000127A0000093D002A0000203A00002043
:10173000704710B500F002F810BD00000CB5002095
:10174000019000903348006840F4803031490860CF
:1017500000BF3048006800F4003000900198401C41
:101760000190009818B90198B0F5A06FF1D12948FF
:10177000006800F4003010B10120009001E000206A
:1017800000900098012843D12348006840F01000E1
:10179000214908600846006820F0030008600846F8
:1017A000006840F0020008601A4840681949486023
:1017B0000846406848600846406840F480604860D9
:1017C0000846406820F47C1048600846406840F4B1
:1017D000E81048600846006840F08070086000BF6C
:1017E0000C48006800F000700028F9D009484068F3
:1017F00020F00300074948600846406840F00200B6
:10180000486000BF0348406800F00C000828F9D188
:101810000CBD00000010024000200240042808D146
:101820004FF0E021096941F004014FF0E02211611D
:1018300007E04FF0E021096921F004014FF0E022B8
:101840001161704730B50146B1F1807F01D30120AD
:1018500030BD21F07F40401E4FF0E0225061501714
:101860000F22002807DA13071D0E094B00F00F04A2
:10187000241F1D5503E013071C0E064B1C5400BF0C
:1018800000204FF0E0229061072010610020DFE788
:1018900018ED00E000E400E07047000010B51348C8
:1018A000006840F00100114908600846406810498E
:1018B00008400E494860084600680E4908400B4938
:1018C00008600846006820F48020086008464068E8
:1018D00020F4FE0048604FF41F008860FFF729FFE6
:1018E0004FF000600449086010BD00000010024085
:1018F0000000FFF8FFFFF6FE08ED00E008B501214B
:101900000420FFF79BFE4FF40040ADF800001820C4
:101910008DF8030003208DF8020069463E48FFF76A
:10192000C0FC01210820FFF789FE0820ADF8000067
:1019300018208DF8030003208DF80200694637480F
:10194000FFF7AFFC01211020FFF778FE8020ADF8F3
:10195000000018208DF8030003208DF8020069466E
:101960002F48FFF79EFC01211020FFF767FE4FF480
:101970008070ADF8000018208DF8030003208DF86A
:10198000020069462648FFF78CFC01211020FFF772
:1019900055FE4FF40070ADF8000018208DF80300DC
:1019A00003208DF8020069461D48FFF77AFC0121EB
:1019B0000820FFF743FE4020ADF8000018208DF806
:1019C000030003208DF8020069461448FFF769FC04
:1019D00001210820FFF732FE8020ADF8000018201A
:1019E0008DF8030003208DF8020069460B48FFF7CD
:1019F00058FC01210820FFF721FE4FF48070ADF85C
:101A0000000018208DF8030003208DF802006946BD
:101A10000248FFF746FC08BD00080140000C0140E9
:101A2000001001401FB56020ADF800000120ADF8A6
:101A300002000020ADF80800ADF8060069464FF03E
:101A4000804000F07FFA0821C80600F0C7FA0020A5
:101A5000ADF8060069464FF0804000F0C9FA082151
:101A6000C80600F017FB0121880700F045FA0020A6
:101A7000ADF806006946234800F0BAFA082121486B
:101A800000F008FB0020ADF8060069461D4800F094
:101A90000FFB08211B4800F05BFB0020ADF806009F
:101AA0006946184800F05EFB0821164800F098FBD4
:101AB0000121144800F020FA0020ADF80600694624
:101AC000114800F03FFA08210F4800F087FA002083
:101AD000ADF8060069460C4800F08AFA08210A4869
:101AE00000F0D8FA0020ADF806006946064800F07C
:101AF000DFFA0821044800F02BFB0121024800F026
:101B0000FBF91FBD00040040000800400EB5012194
:101B10000846FFF783FD01210846FFF78FFD0121ED
:101B20002848FFF749FC01212748FFF745FC6320BF
:101B3000ADF804004720ADF800000020ADF8060025
:101B4000ADF802008DF8080069464FF0804000F0C3
:101B500055FB01210220FFF761FD6320ADF8040071
:101B60004720ADF800000020ADF80600ADF80200F7
:101B70008DF808006946154800F040FB0122114627
:101B8000124800F0D6F90121104800F0AFF969467B
:101B90000E4800F033FB01210420FFF73FFD6320D6
:101BA000ADF804004720ADF800000020ADF80600B5
:101BB000ADF802008DF808006946054800F01EFBEC
:101BC0000EBD000000031800000C1A0000040040C5
:101BD0000008004010B50121114800F099F9F0B15A
:101BE00001210F4800F085F90E484079012816D1EF
:101BF0000C480079012812D100BF80F3138800BF80
:101C000000BF0948006800F4E06008490843001D6F
:101C100005490860BFF34F8F00BF00BFFEE710BD4E
:101C200000040040640400200CED00E00000FA0510
:101C30000EB501213020FFF7F1FC01210846FFF726
:101C4000FDFC01211F48FFF7B7FB40F2E730ADF87C
:101C5000040041F61F40ADF800000020ADF806007A
:101C6000ADF8020001221146174800F062F9012187
:101C7000154800F03BF96946134800F0BFFA01210E
:101C8000114800F039F942F20F70ADF8040041F646
:101C90001F40ADF800000020ADF80600ADF80200CE
:101CA00001221146094800F044F90121074800F0DB
:101CB0001DF96946054800F0A1FA0021034800F02B
:101CC0001BF90EBD0002300000100040001400405F
:101CD00010B5FFF7ADFFFFF72AFCFFF70FFEFFF788
:101CE00015FFFFF79FFE10BD10B50121254800F03C
:101CF0000FF9002844D00121224800F0FAF800F042
:101D0000B3FE2149086000F029FF204840790128EE
:101D100036D11E49086A1E4903F098FA04D84FF0DC
:101D20007C501C4908602BE01849086A184903F0E8
:101D30008DFB0AD21549086A174903F087FA04D8BF
:101D40004FF07F50134908601AE01049086A1249A1
:101D500003F07CFB0AD20D49086A104903F076FAB9
:101D600004D24FF07E500B49086009E00749086A29
:101D70000A4903F06BFB03D84FF07E500549086019
:101D800010BD0000001000407C0000206404002012
:101D90000000084208000020000014420000284211
:101DA00010B50121444800F0B3F800287ED001218D
:101DB000414800F09EF841480068401C3F490860D7
:101DC0003F480078401C3E4908703E480078012892
:101DD00022D13D480068401C3B4908600846006825
:101DE000052812DA3948006808B9012000E000200F
:101DF000364908603648D0F8800108B9012000E073
:101E0000002032493839086006E000202D4908706A
:101E10002E4908602C4908602E480078012849D1D5
:101E2000264800683C281FD10020244908602A4821
:101E30000068401E2849086008460068002804DA47
:101E40000920086001202549C8772548006858B94D
:101E50002448006840B92048006828B90120224978
:101E6000087000201B4908701C48C07F012813D14E
:101E700000201A49C8771A480068401E18490860AF
:101E800008460068002807DA1648006820B10920D3
:101E900008600120114988771048807F012809D106
:101EA00000200E4988770F48006800E002E0401EDD
:101EB0000C49086010BD00000014004074000020B0
:101EC000700000208000002078000020B8812142AE
:101ED000008021426F0000204000002064040020A8
:101EE00044000020480000206E000020CA43028207
:101EF0007047CA430282704721B1028842F0010252
:101F0000028004E002884FF6FE731A400280704798
:101F100030B50246002000230024158A05EA01039B
:101F2000958905EA010413B10CB1012000E00020FD
:101F300030BD1AB183890B43838102E083898B43CF
:101F40008381704770B5002400220023058C4FF672
:101F5000FE7635400584028C8388048B4FF68F759E
:101F60002C40B51E2C400D882C43751E2A400D892F
:101F70002A434D882A43144DA8420BD0134DA84242
:101F800008D0134DA84205D0124DA84202D0124DE0
:101F9000A84213D14FF6F7752A404D892A434FF6D0
:101FA000FB752A408D882A434FF6FF652B404FF67C
:101FB000FF552B408D892B43CD892B438380048390
:101FC000CD888586028470BD002C0140003401401C
:101FD0000040014000440140004801400A46002101
:101FE000018B4FF6F77319401143018370470000CE
:101FF00070B5002400220023058C4FF6EF763540A3
:102000000584028C8388048B48F6FF752C404FF6BC
:10201000FF452C400D884FF6FF7606EA05252C4338
:102020004FF6DF752A400D8906EA05152A434D88CB
:1020300006EA05152A43154DA84202D0144DA842C0
:102040001DD14FF67F752A404D894FF6FF7606EA7F
:1020500005152A434FF6BF752A408D8806EA0515F7
:102060002A434FF6FF352B404FF2FF752B408D89E9
:1020700006EA85052B43CD8906EA85052B43838037
:102080000483CD880587028470BD0000002C0140C8
:10209000003401400A460021018B4FF2FF731940C2
:1020A0004FF6FF7303EA02231943018370470000D0
:1020B00070B5002400220023058C4FF6FF663540E2
:1020C0000584028C8388848B4FF68F752C404FF6E5
:1020D000FC752C400D882C434FF6FF552A400D8986
:1020E0004FF6FF7606EA05252A434D8806EA0525C0
:1020F0002A43154DA84202D0144DA8421DD14FF2DB
:10210000FF752A404D894FF6FF7606EA05252A43DA
:102110004FF6FF352A408D8806EA05252A434EF6FC
:10212000FF752B404DF6FF752B408D8906EA05158E
:102130002B43CD8906EA05152B4383808483CD8804
:102140008587028470BD0000002C014000340140EE
:102150000A460021818B4FF6F773194011438183A2
:102160007047000070B5002200230024058C4EF655
:10217000FF7635400584038C8488828B48F6FF7592
:102180002A404FF6FF452A400D884FF6FF7606EAB3
:1021900005252A434DF6FF752B400D8906EA0535C6
:1021A0002B434D8806EA05352B430B4DA84202D040
:1021B0000A4DA84208D14BF6FF752C408D894FF689
:1021C000FF7606EA85152C4384808283CD88A0F8AB
:1021D0004050038470BD0000002C014000340140D9
:1021E0000A460021818B4FF2FF7319404FF6FF73AF
:1021F00003EA02231943818370470000002202880A
:102200001D4B98420ED01D4B98420BD0B0F1804F21
:1022100008D01B4B984205D01A4B984202D01A4B5B
:10222000984204D14FF68F731A404B881A43174BCC
:10223000984207D0164B984204D04FF6FF431A40FD
:10224000CB881A4302808B8883850B8803850A4BD1
:1022500098420BD0094B984208D00E4B984205D0BB
:102260000D4B984202D00D4B984201D10B7A038658
:102270000123838270470000002C0140003401409C
:102280000004004000080040000C00400010004026
:10229000001400400040014000440140004801405B
:1022A00010B501F095FC01F0B3FC01F02FFD10BD5D
:1022B0002DE9F05F04460D4616461F46DDE90CABDE
:1022C000DDE90A89002000EBC400EF4A105C00221F
:1022D00002EBC502ED4B9A5C1043002202EBC602F2
:1022E000EB4B9A5C1043002202EBC702E94B9A5C6D
:1022F0001043002202EBC802E74B9A5C1043002215
:1023000002EBC902E54B9A5C1043002202EBCA02C1
:10231000E34B9A5C1043002202EBCB02E14B9A5C48
:1023200040EA0201C02001F0DBFC012000EBC40008
:10233000D54A105C012202EBC502D44B9A5C1043D3
:10234000012202EBC602D24B9A5C1043012202EB3F
:10235000C702D04B9A5C1043012202EBC802CE4B5D
:102360009A5C1043012202EBC902CC4B9A5C1043E9
:10237000012202EBCA02CA4B9A5C1043012202EB13
:10238000CB02C84B9A5C40EA0201C22001F0A8FCD3
:10239000022000EBC400BC4A105C022202EBC50222
:1023A000BA4B9A5C1043022202EBC602B84B9A5C0D
:1023B0001043022202EBC702B64B9A5C1043022282
:1023C00002EBC802B44B9A5C1043022202EBC90232
:1023D000B24B9A5C1043022202EBCA02B04B9A5CE9
:1023E0001043022202EBCB02AE4B9A5C40EA0201A0
:1023F000C42001F075FC032000EBC400A24A105C6D
:10240000032202EBC502A14B9A5C1043032202EBAC
:10241000C6029F4B9A5C1043032202EBC7029D4BFE
:102420009A5C1043032202EBC8029B4B9A5C104358
:10243000032202EBC902994B9A5C1043032202EB80
:10244000CA02974B9A5C1043032202EBCB02954BD6
:102450009A5C40EA0201C62001F042FC042000EB35
:10246000C400894A105C042202EBC502874B9A5CC7
:102470001043042202EBC602854B9A5C10430422EF
:1024800002EBC702834B9A5C1043042202EBC802A2
:10249000814B9A5C1043042202EBC9027F4B9A5C89
:1024A0001043042202EBCA027D4B9A5C10430422C3
:1024B00002EBCB027B4B9A5C40EA0201C82001F0A0
:1024C0000FFC052000EBC4006F4A105C052202EBF4
:1024D000C5026E4B9A5C1043052202EBC6026C4BA0
:1024E0009A5C1043052202EBC7026A4B9A5C1043C8
:1024F000052202EBC802684B9A5C1043052202EBEE
:10250000C902664B9A5C1043052202EBCA02644B77
:102510009A5C1043052202EBCB02624B9A5C40EAC4
:102520000201CA2001F0DCFB062000EBC400564A81
:10253000105C062202EBC502544B9A5C1043062243
:1025400002EBC602524B9A5C1043062202EBC70212
:10255000504B9A5C1043062202EBC8024E4B9A5C29
:102560001043062202EBC9024C4B9A5C1043062230
:1025700002EBCA024A4B9A5C1043062202EBCB02E2
:10258000484B9A5C40EA0201CC2001F0A9FB0720ED
:1025900000EBC4003C4A105C072202EBC5023B4B37
:1025A0009A5C1043072202EBC602394B9A5C104337
:1025B000072202EBC702374B9A5C1043072202EB5B
:1025C000C802354B9A5C1043072202EBC902334B19
:1025D0009A5C1043072202EBCA02314B9A5C10430B
:1025E000072202EBCB022F4B9A5C40EA0201CE207D
:1025F00001F076FB00220E9802EBC0002A4A115C23
:10260000C12001F06DFB01220E9802EBC000264AAA
:10261000115CC32001F064FB02220E9802EBC000A3
:10262000214A115CC52001F05BFB03220E9802EBEE
:10263000C0001D4A115CC72001F052FB04220E9815
:1026400002EBC000184A115CC92001F049FB0522C9
:102650000E9802EBC000144A115CCB2001F040FB45
:1026600006220E9802EBC0000F4A115CCD2001F04B
:1026700037FB07220E9802EBC0000B4A115CCF20FB
:1026800001F02EFBBDE8F09F82000020DA00002060
:10269000320100208A010020E20100203A020020DD
:1026A00092020020EA0200204203002010B540F20E
:1026B00025511D4800F04AF810B31B4800F002F9FC
:1026C000C4B21A48008800F40040C8B9174800880E
:1026D00000F4804060B10A2C03D000201349088028
:1026E00020E01248008840F400401049088019E0BA
:1026F0000D2C06D10D48008840F480400B4908801D
:1027000010E00A480088C0F30D0009490C5407483E
:102710000088401C0549088008460088C72801DD5C
:102720000020088010BD0000003801402800002073
:102730009C03002021B1828942F40052828104E08E
:1027400082894DF6FF731A408281704770B5024648
:10275000002400230025002040F66A16B14200D173
:1027600000BFC1F3421501F01F03012606FA03F36F
:10277000012D02D19689334006E0022D02D1168A3E
:10278000334001E0968A33400C12012606FA04F425
:102790001688344013B10CB1012000E0002070BD58
:1027A000F0B50346002400260025002040F66A17F5
:1027B000B94200D100BF1846C1F3421401F01F0610
:1027C000012707FA06F5012C01D10C3004E0022C98
:1027D00001D1103000E014301AB107682F430760B0
:1027E00002E00768AF430760F0BD00002DE9F04745
:1027F00086B005460E460024A24600BFA14600272B
:10280000B08900B100BF2F462C8A4CF6FF700440FF
:10281000F08804432C82AC894EF6F3100440B08853
:1028200031890843718908430443AC81AC8A4FF66F
:10283000FF400440B0890443AC8201A8FEF70EFFBC
:102840001F48874202D1DDF810A001E0DDF80CA09E
:10285000A88900F4004040B10AEBCA0000EB0A105E
:1028600031684900B0FBF1F807E00AEBCA0000EB61
:102870000A1031688900B0FBF1F86420B8FBF0F071
:1028800004012009642101FB1089A88900F400409B
:1028900040B1322000EBC900B0FBF1F000F00700BE
:1028A000044308E0322000EB09106421B0FBF1F092
:1028B00000F00F0004432C8106B0BDE8F087000053
:1028C0000038014001468888C0F30800704700BF07
:1028D000FEE7490050EAC12018BF04204A0D18BF86
:1028E00040F0010040F2FF72B2EB515F08BF40F0D0
:1028F0000200012808BF0520704700BF7047000094
:1029000010B56FF00400FEF789FF0A4800680A4915
:10291000B0FBF1F0094908700846007800EB40016F
:10292000C1EBC0104FF6FF7101EAC00004490880F6
:1029300010BD00000C00002000127A0020000020D2
:102940002200002070B504460F4800684FF47A71E9
:10295000B0FBF1F63046FEF775FF002508E000BF3A
:102960004FF0E020006900F480300028F8D06D1CA2
:10297000A542F4D34FF0E020006920F001004FF0B1
:10298000E021086170BD00000C00002000BF054A76
:10299000128802F04002002AF9D0C2B2014B1B1D7E
:1029A0001A8070470038014038B5002500221021F8
:1029B0002B48FEF754FD422001F05CF929480068DD
:1029C00020F07040274908600846006840F0004049
:1029D0000860012240212248FEF741FD002405E065
:1029E00001F02AF90DF80400601CC4B2042CF7DBD6
:1029F0001C48006820F070401A49086008460068CA
:102A000040F040500860012210211548FEF727FDD4
:102A1000002420E01DF80400D0B11DF804000E30A1
:102A20000F2190FBF1F0022101FB0400C5B2284602
:102A300005EBD0725210A5EB4202C2F1010207234E
:102A400003FB0252511C01EBD172C2F3470504E0B3
:102A50000025601CC4B2042CDCDB00BF284638BD56
:102A600000080140041801402DE9F04F8DB04FF0EF
:102A7000000A00BF36480B9000BF00BF00BF00BF78
:102A8000DFF8D0B034480690C221802001F024F84D
:102A9000012000F0CFFF4FEA002A022000F0CAFF19
:102AA00040EA0A0A4FEA5A0A4FF47A610AFB01F136
:102AB000C80B02F0B7FB0C908BF000400A90DDE9E8
:102AC0000B1002F0B9FA80464FF07E5102F0EFFC95
:102AD00005464FF08140069902F0ECFB0746294677
:102AE00002F0E8FB04465946584602F0E3FB06466E
:102AF000214602F0E7FC09904FF08040069902F071
:102B0000D9FB089009980790089802F0FBF9CDE9E5
:102B100004010A9802F0F6F980468946079802F007
:102B2000F1F9CDE9000101F02DF8064642464B4689
:102B300001F0C4FDCDE90201DDE9042301F066FEE8
:102B4000044601F089FD079007980DB0BDE8F08FAD
:102B500000007A443211803B7F051BB500B585B07B
:102B6000FE48C078FD498978401A012878D10020B4
:102B7000FA49887388740846407B30B908468079E2
:102B80000870002048700120487301F014F90220F9
:102B900001F0D3F8F1480078F0494978401A0A2842
:102BA00075D2DFE800F005101B26313C47525E6904
:102BB000002001F011F9E9480078E8494978401A05
:102BC000E649887163E0012001F006F9E3480078E6
:102BD000E2494978401AE149887158E0022001F041
:102BE000FBF8DE480078DD494978401ADB498871F6
:102BF0004DE0032001F0F0F8D8480078D749497833
:102C0000401AD649887142E0042001F0E5F8D34823
:102C10000078D2494978401AD049887137E00520B8
:102C200001F0DAF8CD480078CC494978401ACB4910
:102C300088712CE0062001F0CFF8C8480078C74919
:102C40004978401AC549887121E0072001F0C4F88D
:102C5000C2480078C1494978401AC049887116E0D5
:102C600016E0082001F0B8F8BC480078BB49497864
:102C7000401ABA4988710AE0092001F0ADF8B74856
:102C80000078B6494978401AB449887100BF00BF3E
:102C9000B248C078B1498978401A022879D1002019
:102CA000AE494873C873032001F047F8AB48807BF6
:102CB00038B9AA48C079A949087000204870012095
:102CC0008873A6480078A5494978401A0A2814D282
:102CD000DFE800F0051423324150606F7E8D9F487D
:102CE000807901460490002001F0BEF89B480078EE
:102CF0009A494978401A9949C87187E0974880797C
:102D000001460490012001F0AFF8944800789349FF
:102D10004978401A9149C87178E090488079014615
:102D20000490022001F0A0F88C4800788B49497883
:102D3000401A8A49C87169E0884880790146049040
:102D4000032001F091F88548007884494978401AB9
:102D50008249C8715AE08148807901460490042074
:102D600001F082F87D4800787C494978401A7B4917
:102D7000C8714BE07948807901460490052001F044
:102D800073F87648007875494978401A7349C871D4
:102D90003CE03CE07148807901460490062001F057
:102DA00063F86E4800786D494978401A6B49C871DC
:102DB0002CE06A48807901460490072001F054F81D
:102DC0006648007865494978401A6449C8711DE031
:102DD0006248807901460490082001F045F85F4878
:102DE00000785E494978401A5C49C8710EE05B483A
:102DF000807901460490092001F036F857480078A0
:102E000056494978401A5549C87100BF00BF534818
:102E1000C07852498978401A03287AD100204F4956
:102E2000887348740846C07B30B90846007A087039
:102E3000002048700120C873484800784749497805
:102E4000401A0A2818D2DFE800F005182B3E516519
:102E5000788EA1B44148807904904048C0790390AD
:102E600001460020049A01F083F83C4800783B4971
:102E70004978401A39490872AEE0384880790490A0
:102E80003648C079039001460120049A01F070F899
:102E90003248007831494978401A304908729BE03D
:102EA0002E48807904902D48C07903900146022075
:102EB000049A01F05DF82948007828494978401AB9
:102EC0002649087288E02548807904902348C07913
:102ED000039001460320049A01F04AF81F48007845
:102EE0001E494978401A1D49087275E01B488079CF
:102EF00004901A48C079039001460420049A01F016
:102F000037F81648007815494978401A134908726D
:102F100062E062E01148807904901048C079039023
:102F200001460520049A01F023F80C4800780B496B
:102F30004978401A094908724EE00848807904909F
:102F40000648C079039001460620049A01F010F863
:102F50000248007801494978401A01E064040020E1
:102F6000F849087238E0F74880790490F548C0794C
:102F7000039001460720049A00F0FAFFF148007818
:102F8000F0494978401AEF49087225E0ED48807908
:102F90000490EC48C079039001460820049A00F0A0
:102FA000E7FFE8480078E7494978401AE5490872A0
:102FB00012E0E44880790490E248C0790390014629
:102FC0000920049A00F0D4FFDE480078DD494978F2
:102FD000401ADC49087200BF00BFDA48C078D949FE
:102FE0008978401A042877D10020D649C8734874DC
:102FF0000846007C30B90846407A087000204870C6
:1030000001200874CF480078CE494978401A0A2830
:103010001CD2DFE800F0051C334A627990A7BED5C8
:10302000C84880790490C748C0790390C548007AA1
:10303000029001460020DDE9032301F04FF8C1486A
:103040000078C0494978401ABE494872CFE0BD486F
:1030500080790490BB48C0790390BA48007A029006
:1030600001460120DDE9032301F038F8B548007876
:10307000B4494978401AB3494872B8E0B1488079F8
:103080000490B048C0790390AE48007A029001469F
:103090000220DDE9032301F021F8AA480078A949BC
:1030A0004978401AA7494872A1E0A648807904905F
:1030B000A448C0790390A348007A029001460320F7
:1030C000DDE9032301F00AF89E4800789D4949781C
:1030D000401A9C4948728AE08AE09A4880790490B4
:1030E0009848C07903909748007A029001460420DE
:1030F000DDE9032300F0F2FF924800789149497816
:10310000401A9049487272E08E48807904908D4848
:10311000C07903908B48007A029001460420DDE9D3
:10312000032300F0DBFF8748007886494978401A7E
:10313000844948725BE08348807904908148C07973
:1031400003908048007A029001460620DDE90323BF
:1031500000F0C4FF7B4800787A494978401A7949E1
:10316000487244E07748807904907648C0790390AB
:103170007448007A029001460720DDE9032300F03D
:10318000ADFF704800786F494978401A6D49487220
:103190002DE06C48807904906A48C07903906948B2
:1031A000007A029001460820DDE9032300F096FF33
:1031B0006448007863494978401A6249487216E0C9
:1031C0006048807904905F48C07903905D48007A38
:1031D000029001460920DDE9032300F07FFF5948F2
:1031E000007858494978401A5649487200BF00BFD4
:1031F0005448C07853498978401A05287DD1002069
:1032000050490874887400F0D6FD4E48407C38B9A7
:103210004C48807A4B49087000204870012048745F
:103220004848007847494978401A0A281FD2DFE801
:1032300000F0051F39536F8BA5BFD9F44148807941
:1032400000904048C07904903E48007A03903D4881
:10325000407A029001460020DDE9032301F02AF8BC
:103260003848007837494978401A36498872EEE084
:103270003448807900903348C07904903148007A0E
:1032800003903048407A029001460120DDE9032393
:1032900001F010F82B4800782A494978401A29494A
:1032A0008872D4E02748807900902648C07904903D
:1032B0002448007A03902348407A02900146022075
:1032C000DDE9032300F0F6FF1E4800781D49497828
:1032D000401A1C498872BAE01A488079009019484F
:1032E000C07904901748007A03901648407A0290FB
:1032F00001460320DDE9032300E0A9E000F0DAFF46
:10330000104800780F494978401A0E4988729EE0AB
:103310000C48807900900B48C07904900948007AE5
:1033200003900848407A029001460420DDE9032317
:1033300000F0C0FF0348007802494978401A01496B
:10334000887284E064040020CE4880790090CD48E3
:10335000C0790490CB48007A0390CA48407A029022
:1033600001460520DDE9032300F0A4FFC5480078ED
:10337000C4494978401AC349887268E0C1488079D5
:103380000090C048C0790490BE48007A0390BD48C0
:10339000407A029001460620DDE9032300F08AFF0F
:1033A000B8480078B7494978401AB64988724EE063
:1033B000B44880790090B348C0790490B148007A4D
:1033C0000390B048407A029001460720DDE90323CC
:1033D00000F070FFAB480078AA494978401AA94923
:1033E000887234E0A74880790090A648C07904909C
:1033F000A448007A0390A348407A0290014608202E
:10340000DDE9032300F056FF9E4800789D49497886
:10341000401A9C4988721AE0FFE79A488079009028
:103420009848C07904909748007A03909548407A6C
:10343000029001460920DDE9032300F03BFF91489B
:10344000007890494978401A8E49887200BF00BFC1
:103450008C48C0788B498978401A062878D100209A
:103460008849487448730846807C30B90846C07A59
:103470000870002048700120887400F09CFC81488E
:10348000807900907F48C07904907E48007A03904C
:103490007C48407A02907B48807A019002A90EC94C
:1034A00000F008FF7748007876494978401A0A28E2
:1034B0007FD2DFE800F005111D2935414E5A6672B2
:1034C0000021084601F016F86E4800786D494978E9
:1034D000401A6C49C8726CE00021012001F00AF822
:1034E0006848007867494978401A6649C87260E0C0
:1034F0000021022000F0FEFF62480078614949780F
:10350000401A6049C87254E00021032000F0F2FF25
:103510005C4800785B494978401A5A49C87248E0CB
:103520000021042000F0E6FF56480078554949780C
:10353000401A5449C8723CE00021052000F0DAFF2F
:10354000504800784F494978401A4E49C87230E0D7
:1035500030E00021062000F0CDFF4A4800784949BC
:103560004978401A4749C87223E00021072000F03B
:10357000C1FF4448007843494978401A4149C8721C
:1035800017E00021082000F0B5FF3E4800783D49D3
:103590004978401A3B49C8720BE00021092000F02D
:1035A000A9FF3848007837494978401A3549C87228
:1035B00000BF00BF33488079642148433149C9794D
:1035C00001EB810100EB41002E49097A0844039088
:1035D00001F010FE2C49049001F02EFD29490862EB
:1035E0000846407A642148432649897A01EB8101E3
:1035F00000EB41002349C97A084422494862084641
:103600008079042803DB0846C079042803DC1D48C0
:103610008079042804DD04201A49087000204870CD
:103620001848007901282AD1184908700020154946
:103630000871C87088700846406A154908600846D5
:103640000068642190FBF1F012490860104800689E
:103650000A2190FBF1F090FBF1F201FB12000E4900
:1036600008600B4800680A2190FBF1F201FB120090
:103670000A490860012204210948FDF7F0FE05B05F
:1036800000BD000064040020000020410000002074
:103690004C00002048000020440000204000002092
:1036A000000C014010B54A48007849494978401A51
:1036B000092803DD00204649087048704448007816
:1036C00043494978401A04D509204149087000202F
:1036D00048703F48C0783E498978401A01280ADA84
:1036E0003B48C07838B13A48807820B10120384949
:1036F000C870002088703648C07835498978401AEB
:10370000062804DD06203249C87000208870FFF7C3
:103710004BF906280CD11420FFF714F9FFF744F9F0
:10372000062854D12A480078401C294908704EE0E8
:10373000FFF73AF907280CD11420FFF703F9FFF738
:1037400033F9072843D122484078401C204948706B
:103750003DE0FFF729F903280CD11420FFF7F2F818
:10376000FFF722F9032832D119488078401C184904
:1037700088702CE0FFF718F902280CD11420FFF70D
:10378000E1F8FFF711F9022821D11148C078401C57
:103790000F49C8701BE0FFF707F905280AD114206C
:1037A000FFF7D0F8FFF700F9052810D101200849EC
:1037B00008710CE0FFF7F8F8012808D11420FFF792
:1037C000C1F8FFF7F1F8012801D10149487110BD96
:1037D0006404002086B0FDF749FEDC210420FDF7DB
:1037E00059FEFFF78DF84FF4E13000F0CFFE00F006
:1037F0001BF9FEF755FDFEF76BFA012280215648B2
:10380000FDF72DFE012291035448FDF728FEC82044
:10381000FFF798F800224FF480415048FDF71FFE53
:1038200099E0FFF73FFF5020FFF78CF84C48016804
:103830004C48006801F046FE4B4908604B494A4835
:10384000006801F037FD0546494901F0F5FB0446E3
:1038500001F0B4FC4749086044494348006801F05E
:1038600029FD0546414901F0E7FB044601F0A6FCAD
:103870000A2190FBF1F201FB12003F4908603B492D
:103880003948006801F016FD044601F097FC0A2152
:1038900090FBF1F201FB12003849086031480068E2
:1038A00001F030FB04460D462F48006801F02AFB6A
:1038B000064632460B4632A0CDE90045FCF7D8FC5F
:1038C00037A0FCF7D5FC3748407901283BD10122CD
:1038D00002212248FDF7C3FD01213348FEF70CFB0E
:1038E00032480078022819D1002030490870304849
:1038F000007830490978304A1278204B1B78CDE99E
:103900000132CDE903101C4800781A4C009023784E
:10391000244C227AE179A079FEF7CAFC10480168AC
:103920001048006801F0CEFD04461E48016A20469A
:1039300001F08CFD04D800204FF08041888602E021
:103940006420010788861D480078012801D11C49A0
:103950000870FDF79BFD64E700180140000C014072
:10396000080000207C00002004000020000020410E
:103970000000C842600000206400002068000020B1
:103980000D0A20CEC2B6C8203D20256620A1E62023
:1039900020D5E6CAB5203D20256620A1E60D0A0007
:1039A0000A0D000064040020001400407000002094
:1039B0004000002044000020480000206E0000204D
:1039C0008000002008B501213020FDF737FE4FF4BC
:1039D000E050ADF8000010208DF8030003208DF8B2
:1039E000020069460B48FDF75CFC0120ADF80000C1
:1039F00048208DF8030069460748FDF752FC012274
:103A0000D1020448FDF72BFD012211030148FDF707
:103A100026FD08BD001001400014014010B5C22170
:103A2000802000F059F810BD10B5FFF7F7FFFFF741
:103A3000C9FF10BD70B50646002400224FF4805126
:103A40002348FDF70CFD00251DE000224FF4006126
:103A50001F48FDF704FD06F0800028B10122910205
:103A60001B48FDF7FCFC05E000224FF4806118487C
:103A7000FDF7F5FC0122D1021548FDF7F0FC7006B8
:103A8000060E681CC5B2082DDFDB002517E06006B6
:103A9000040E00224FF400610D48FDF7E0FC012107
:103AA0000C48FDF7D1FC10B144F0010400E000BF68
:103AB0000122D1020648FDF7D2FC681CC5B2082DD0
:103AC000E5DB012211030248FDF7C9FC204670BD69
:103AD000001001400014014070B505460E4600225A
:103AE0004FF480512648FDF7BAFC00241DE0002267
:103AF0004FF400612248FDF7B2FC05F0800028B1C8
:103B0000012291021E48FDF7AAFC05E000224FF4B5
:103B100080611B48FDF7A3FC0122D1021848FDF784
:103B20009EFC6806050E601CC4B2082CDFDB002476
:103B30001DE000224FF400611148FDF790FC06F0F3
:103B4000800028B1012291020D48FDF788FC05E0B4
:103B500000224FF480610A48FDF781FC0122D10266
:103B60000748FDF77CFC7006060E601CC4B2082CEA
:103B7000DFDB012211030248FDF771FC70BD00007C
:103B8000001001402DE9F04106460F4600F0EAFF23
:103B9000041E0D4618BF0120284320F00040C0F14C
:103BA0007F6000F1E040C00F0ED0301C18BF012034
:103BB000384320F00040C0F17F6000F1E040C00FCA
:103BC00004BF0120FCF79DFB20462946BDE8F0819B
:103BD00008B501210420FDF731FD7020ADF800008B
:103BE00010208DF8030003208DF802006946074875
:103BF000FDF757FB012220210448FDF730FC01228C
:103C000010210248FDF72BFC08BD00000008014010
:103C100010B5402000F052F88F2000F04FF8C0207F
:103C200000F04CF8002404E0002000F023F8601CB1
:103C3000C4B2102CF8DB10BD70B50024002513E0D1
:103C40006410002220210A48FDF709FC40210848A1
:103C5000FDF7FAFB08B144F080040122202104485A
:103C6000FDF7FDFB681CC5B2082DE9DB204670BDE1
:103C70000008014070B5044600251AE0002220210A
:103C80000D48FDF7ECFB04F0010028B101224021B2
:103C90000948FDF7E4FB04E0002240210648FDF757
:103CA000DEFB6410012220210348FDF7D8FB681CCD
:103CB000C5B2082DE2DB70BD0008014010B5044616
:103CC000002210210548FDF7CAFB2046FFF7D2FF6E
:103CD000012210210148FDF7C2FB10BD0008014080
:103CE00070B505460C46002210210748FDF7B7FBCA
:103CF0002846FFF7BFFFE0B2FFF7BCFF012210210B
:103D00000148FDF7ACFB70BD0008014010B5442030
:103D1000FFF7D4FF00240DE06100C031C8B20021DC
:103D2000FFF7DEFF6100C131C8B20021FFF7D8FF05
:103D3000601CC4B2082CEFDB10BD10B50446442053
:103D4000FFF7BCFF601E00228240D1B2C020FFF707
:103D5000C7FF601E00228240D1B2C220FFF7C0FF21
:103D6000601E00228240D1B2C420FFF7B9FF601E5E
:103D700000228240D1B2C620FFF7B2FF601E0022AF
:103D80008240D1B2C820FFF7ABFF601E0022824004
:103D9000D1B2CA20FFF7A4FF601E00228240D1B238
:103DA000CC20FFF79DFF601E00228240D1B2CE20C2
:103DB000FFF796FF10BD10B54420FFF77FFF0024EA
:103DC00007E06100C131C8B20021FFF789FF601C24
:103DD000C4B2082CF5DB10BD10B504464420FFF733
:103DE0006DFF002000EBC4001E4A115CC020FFF7ED
:103DF00077FF012000EBC4001A4A115CC220FFF7D4
:103E00006FFF022000EBC400164A115CC420FFF7CC
:103E100067FF032000EBC400124A115CC620FFF7C5
:103E20005FFF042000EBC4000E4A115CC820FFF7BE
:103E300057FF052000EBC4000A4A115CCA20FFF7B7
:103E40004FFF062000EBC400064A115CCC20FFF7B0
:103E500047FF072000EBC400024A115CCE20FFF7A9
:103E60003FFF10BD8200002070B504460D4644207F
:103E7000FFF724FF002000EBC4003B4A105C002247
:103E800002EBC502394B9A5C40EA0201C020FFF701
:103E900027FF012000EBC400334A105C012202EB33
:103EA000C502324B9A5C40EA0201C220FFF718FFBC
:103EB000022000EBC4002C4A105C022202EBC50277
:103EC0002A4B9A5C40EA0201C420FFF709FF032055
:103ED00000EBC400244A105C032202EBC502234B12
:103EE0009A5C40EA0201C620FFF7FAFE042000EBCC
:103EF000C4001D4A105C042202EBC5021B4B9A5CF5
:103F000040EA0201C820FFF7EBFE052000EBC400E9
:103F1000154A105C052202EBC502144B9A5C40EA7C
:103F20000201CA20FFF7DCFE062000EBC4000E4AA7
:103F3000105C062202EBC5020C4B9A5C40EA0201BF
:103F4000CC20FFF7CDFE072000EBC400064A105C32
:103F5000072202EBC502054B9A5C40EA0201CE2023
:103F6000FFF7BEFE70BD0000DA00002082000020D6
:103F700070B504460D4616464420FFF79FFE00200C
:103F800000EBC400524A105C002202EBC502514B08
:103F90009A5C1043002202EBC6024F4B9A5C40EA47
:103FA0000201C020FFF79CFE012000EBC400484A3C
:103FB000105C012202EBC502464B9A5C10430122C1
:103FC00002EBC602444B9A5C40EA0201C220FFF7B2
:103FD00087FE022000EBC4003D4A105C022202EB87
:103FE000C5023C4B9A5C1043022202EBC6023A4BDC
:103FF0009A5C40EA0201C420FFF772FE032000EB46
:10400000C400334A105C032202EBC502314B9A5CB8
:104010001043032202EBC6022F4B9A5C40EA0201D6
:10402000C620FFF75DFE042000EBC400284A105CA8
:10403000042202EBC502274B9A5C1043042202EBD8
:10404000C602254B9A5C40EA0201C820FFF748FEF1
:10405000052000EBC4001E4A105C052202EBC502DD
:104060001C4B9A5C1043052202EBC6021A4B9A5C69
:1040700040EA0201CA20FFF733FE062000EBC4002D
:10408000134A105C062202EBC502124B9A5C1043E5
:10409000062202EBC602104B9A5C40EA0201CC20D9
:1040A000FFF71EFE072000EBC400094A105C072240
:1040B00002EBC502074B9A5C1043072202EBC602D3
:1040C000054B9A5C40EA0201CE20FFF709FE70BD65
:1040D00032010020DA000020820000202DE9F041AA
:1040E00004460D4616461F464420FFF7E7FD002014
:1040F00000EBC4006B4A105C002202EBC5026A4B65
:104100009A5C1043002202EBC602684B9A5C104393
:10411000002202EBC702664B9A5C40EA0201C02013
:10412000FFF7DEFD012000EBC4005E4A105C0122B7
:1041300002EBC5025C4B9A5C1043012202EBC60203
:104140005A4B9A5C1043012202EBC702584B9A5C0F
:1041500040EA0201C220FFF7C3FD022000EBC400C9
:10416000504A105C022202EBC5024F4B9A5C10438E
:10417000022202EBC6024D4B9A5C1043022202EB74
:10418000C7024B4B9A5C40EA0201C420FFF7A8FD2E
:10419000032000EBC400434A105C032202EBC5027B
:1041A000414B9A5C1043032202EBC6023F4B9A5CE0
:1041B0001043032202EBC7023D4B9A5C40EA020126
:1041C000C620FFF78DFD042000EBC400354A105CCB
:1041D000042202EBC502344B9A5C1043042202EB2A
:1041E000C602324B9A5C1043042202EBC702304BEA
:1041F0009A5C40EA0201C820FFF772FD052000EB3F
:10420000C400284A105C052202EBC502264B9A5CCA
:104210001043052202EBC602244B9A5C1043052290
:1042200002EBC702224B9A5C40EA0201CA20FFF768
:1042300057FD062000EBC4001A4A105C062202EB70
:10424000C502194B9A5C1043062202EBC602174BBB
:104250009A5C1043062202EBC702154B9A5C40EAB7
:104260000201CC20FFF73CFD072000EBC4000D4A03
:10427000105C072202EBC5020B4B9A5C104307222D
:1042800002EBC602094B9A5C1043072202EBC702FD
:10429000074B9A5C40EA0201CE20FFF721FDBDE802
:1042A000F08100009202002032010020DA0000209C
:1042B000820000202DE9F04104460D4616461F46B7
:1042C000DDF818804420FFF7F9FC002000EBC40063
:1042D000834A105C002202EBC502824B9A5C1043B9
:1042E000002202EBC602804B9A5C1043002202EBD4
:1042F000C7027E4B9A5C1043002202EBC8027C4B43
:104300009A5C40EA0201C020FFF7EAFC012000EBC2
:10431000C400734A105C012202EBC502714B9A5C27
:104320001043012202EBC6026F4B9A5C104301223C
:1043300002EBC7026D4B9A5C1043012202EBC802EC
:104340006B4B9A5C40EA0201C220FFF7C9FC0220D5
:1043500000EBC400624A105C022202EBC502614B12
:104360009A5C1043022202EBC6025F4B9A5C104338
:10437000022202EBC7025D4B9A5C1043022202EB61
:10438000C8025B4B9A5C40EA0201C420FFF7A8FC1C
:10439000032000EBC400524A105C032202EBC5026A
:1043A000504B9A5C1043032202EBC6024E4B9A5CC0
:1043B0001043032202EBC7024C4B9A5C10430322CA
:1043C00002EBC8024A4B9A5C40EA0201C620FFF7A2
:1043D00087FC042000EBC400414A105C042202EB7D
:1043E000C502404B9A5C1043042202EBC6023E4BCE
:1043F0009A5C1043042202EBC7023C4B9A5C1043C8
:10440000042202EBC8023A4B9A5C40EA0201C8203F
:10441000FFF766FC052000EBC400314A105C052262
:1044200002EBC5022F4B9A5C1043052202EBC60239
:104430002D4B9A5C1043052202EBC7022B4B9A5C72
:104440001043052202EBC802294B9A5C40EA0201A4
:10445000CA20FFF745FC062000EBC400204A105C90
:10446000062202EBC5021F4B9A5C1043062202EBA8
:10447000C6021D4B9A5C1043062202EBC7021B4B7F
:104480009A5C1043062202EBC802194B9A5C40EA80
:104490000201CC20FFF724FC072000EBC400104AE7
:1044A000105C072202EBC5020E4B9A5C10430722F8
:1044B00002EBC6020C4B9A5C1043072202EBC702C8
:1044C0000A4B9A5C1043072202EBC802084B9A5C25
:1044D00040EA0201CE20FFF703FCBDE8F0810000B6
:1044E000EA0200209202002032010020DA000020BF
:1044F0008200002070B504460D464420FFF7DEFB25
:10450000002D3FD1002000EBC4001F4A115CC120E8
:10451000FFF7E6FB012000EBC4001B4A115CC3203F
:10452000FFF7DEFB022000EBC400174A115CC52038
:10453000FFF7D6FB032000EBC400134A115CC72031
:10454000FFF7CEFB042000EBC4000F4A115CC9202A
:10455000FFF7C6FB052000EBC4000B4A115CCB2023
:10456000FFF7BEFB062000EBC400074A115CCD201C
:10457000FFF7B6FB072000EBC400034A115CCF2015
:10458000FFF7AEFB70BD00004203002010B586B0FF
:104590000446012144F20400FDF750F84FF4007086
:1045A000ADF8140003208DF8160018208DF81700C0
:1045B00005A91C48FCF775FE4FF48060ADF81400A7
:1045C00004208DF8170005A91648FCF76AFE25207F
:1045D0008DF8000003208DF801008DF80200012005
:1045E0008DF803006846FCF7D5FF01940020ADF874
:1045F0000800ADF80A00ADF80C00ADF810000C2072
:10460000ADF80E0001A90848FEF7F0F8012240F2CB
:1046100025510548FEF7C4F801210348FEF78AF842
:1046200006B010BD000801400038014010B5002957
:104630000AD00878002807D005487844FCF7D6F956
:10464000002801D0002010BD0248784410BD0000B1
:104650002E1000002610000021F00042A2F160524E
:10466000B2F5801F01F0004328BFD2F17F6C0BD957
:104670005FEA001C43EAC20242EB507018BF704769
:1046800028BF20F001007047B2F5801FBCBF18465C
:1046900070474FEA410C1CF5001F02D2084600F09B
:1046A000D0BE70B500F00AFA00000089FFF7F6BF2F
:1046B0004FF00040A0F580007047000010B591EA6F
:1046C000030F48BF83F0004300F13A83841A71EB73
:1046D000030C05D2121943EB0C03001B61EB0C0118
:1046E000DFF824E14FEA1154A4EB135C1EEA430FF8
:1046F00018BF9EEA445F73D023EA0E03DCF1200E5C
:1047000021EA045143F4801332D322FA0CFE10EB59
:104710000E0023FA0CFE41EB0E01CCF1200E03FA41
:104720000EFE10EB0E0051F10001B1F5801FCCF12F
:10473000200E32D201EB045112FA0EF2BDE8104005
:1047400058BF7047401C38BF5FEA420218BF70472D
:10475000002814BF20F0010041F100014FEA41039D
:1047600013F5001F38BF7047A1F1C04100F0F4B944
:10477000012A43EB0302ACF1200CDCF11F0E32BF27
:104780004FF0000E23FA0CF310EB030041EB045141
:10479000B4EB115FD0D0A1EB045101F580114908B1
:1047A0005FEA300001EB04510ED350F1000038BF36
:1047B00012FA0EFE08D1BDE81040C9E7401C38BF10
:1047C0005FEA4202CAD1C3E7BDE810404FEA4103A5
:1047D00013F5001F38BF7047A1F1C04100F0BCB90C
:1047E0009EEA445F08D011EA5E0FBDE8104004BFA6
:1047F00001F0004100207047BDE8104070B500F0A6
:104800005DF900BF64FBBE3E0000E0FF2DE9C04142
:1048100030B4DFF8A0C23CEA111418BF3CEA13140C
:1048200000F0EC8081EA03051CEA111444EAD57417
:1048300018BF1CEA131500F0C780A4EB05044FF065
:10484000004545EAC12145EAC32341EA505143EA04
:10485000525304F17F74994204F500344FEAC020AA
:104860004FEAC22208BF904200F09C804FEA1365D5
:104870000FF24016765D4FEA134506FB05F7C7F1C8
:10488000807706FB07F74FEAD737A7FB0368764226
:10489000C8F58038A7FB06CE38BFA8F1010807FB92
:1048A00008E64FF0000EA6FB028CE6FB03CEDCF11F
:1048B000000CCEF1004E38BFAEF1010EA6FB0C5835
:1048C0004FF000074FF00005E6FB0E87A1FB08C67E
:1048D000A0FB07CE16EB0E0645F10005E1FB0765D0
:1048E00015F1E04E7EBFA4F580345FEA46066D41C7
:1048F00016F1800745F100054FEA17274FEA0666D3
:1049000047EA0567A6F1DE46B6F1805F4FEA152556
:104910001FD9384624F0010C05EBC471BCF1FE6FC1
:1049200001EB0C1102D8F0BCBDE8008124425CBF51
:1049300001F5801E9EEAC47F02D4F0BCBDE8008170
:10494000244238D4F0BCA1F1C041BDE8004100F0E0
:1049500003B94FEAD22242EA43524FEAD323A7FBDC
:1049600002864FEAD02040EA415007FB03661EEA68
:104970000E0F4FEAD12105FB026658BFA6EB005689
:10498000B6EB00564FEA520E4EEAC37E18EB0E0EFF
:1049900056EB530EBDD518EB02085E417F1C55F156
:1049A0000005B6E74FF480154FF000074FF0000602
:1049B0004FF00008ADE7F0BC4FF0000001F1C0413E
:1049C00001F00041BDE8008111EA0C1F0CEA13154B
:1049D00000D00CE013EA0C1F00F025804FF000001F
:1049E000F0BC81EA030101F00041BDE80081F0BCA8
:1049F000BDE8004181EA030100F0AEB8F0BCBDE8BB
:104A0000004170B500F05AF8097EFC3E00F007B88E
:104A100081EA03014FF0000001F00041704781EA94
:104A2000030100F099B8F0BCBDE800414FF0000070
:104A300021497047FFFDFBF9F7F5F4F2F0EEEDEBDD
:104A4000E9E8E6E4E3E1E0DEDDDBDAD8D7D5D4D38C
:104A5000D1D0CFCDCCCBCAC8C7C6C5C4C2C1C0BFD8
:104A6000BEBDBCBBBAB9B8B7B6B5B4B3B2B1B0AFDE
:104A7000AEADACABAAA9A8A8A7A6A5A4A3A3A2A1C2
:104A8000A09F9F9E9D9C9C9B9A999998979796957D
:104A900095949393929191908F8F8E8E8D8C8C8B19
:104AA0008B8A8989888887878685858484838382A1
:104AB000828181800000FF070000F87F0EF1020E66
:104AC0002EF0030E5EF8046B364205D4012A43EB48
:104AD000030515F5001F12D8012841EB010C1CF548
:104AE000001F0CD80ED14FEAD17C15F5001F0CEB3E
:104AF0004C0C0CF1020C08BF4CEBD37C04E04FF0E3
:104B0000080C01E04FEAD37C0CEB4C0526FA05F6C5
:104B100006F00706B6F1040C06D20EEB860CBDE8D3
:104B200070404CF0010C6047DFE80CF0090B02020A
:104B30004FF000414FF00000A1F5002170BD194673
:104B40001046012851EB010418BFD4F5001484BFAE
:104B5000002001F0004170BD0808A0F500114FEAE7
:104B6000310170472DE9F04101F5801CBCF5001FB3
:104B7000C0F2C3804FEA115C21EA0C510CF1FD0C2C
:104B800041F480115FEA5C0C0CF5C07C01D340005D
:104B900049413DA4890241EA905187028E0E0A0CD8
:104BA000A45D04FB04F602FB06F6C6F14046A4FB36
:104BB0000662F60D46EA422606FB06F4A4FB012334
:104BC0005242C3F1404338BF5B1EA6FB02420024A1
:104BD000E6FB0324D20B42EA4446A6FB0623A1FBD4
:104BE00002E2A3FB07E4A4184FF0000252F1000216
:104BF000E3FB01426442C2F1404E38BFAEF1010E08
:104C0000A6FB04234FF00002E6FB0E32A2FB034694
:104C10004FF00004B61954F10004E2FB0264A1FB5A
:104C200006E6A4FB07E816EB08064FF0000858F16B
:104C30000008E4FB01687642C8F1405838BFA8F18B
:104C40000108A2FB06E4A3FB08E52D194FF00004C0
:104C500054F10004E2FB0854A1FB05E6A7FB04E8BD
:104C600018EB06084FF0000656F10006E1FB04863B
:104C700018F1200556F10006A809A8F11B08B10992
:104C800008F03F08B8F10A0F40EA86601CD901EB32
:104C90000C51BDE8F08100BFFCF5EEE8E2DDD8D3B1
:104CA000CFCBC7C3C0BDB9B6B4B1AEACA9A7A5A39D
:104CB000A19F9D9B9A9896959392908F8D8C8B89AE
:104CC0008887868584838281A0FB006800FB01F2CF
:104CD00008EB4208B8EB872807D5341858EB0104D5
:104CE000D5D5401C51F10001D1E7341A78EB01040D
:104CF000CDD4401E71F10001C9E75FEA4C0C5FEAB8
:104D00009C5C0DD105D34FF0000001F00041BDE8DF
:104D1000F081BDE8F04170B5FFF7D0FE6DDBFFBE5E
:104D2000BDE8F0414FF00000004970470000F87FF7
:104D300010B591EA030F48BF83F000433FF5C6ACBE
:104D4000841A71EB030C07D212198CF0004C43EB60
:104D50000C03001B61EB0C01DFF8A4E14FEA1154D6
:104D6000A4EB135C1EEA430F18BF9EEA445F00F0F9
:104D7000B08023EA6E03524221EA0451C3EB6E0372
:104D800038BF5B1EDCF1200E25D322FA0CFE10EB9F
:104D90000E0043FA0CFE41EB0E01CCF1200E03FA9B
:104DA0000EFE10EB0E0051F10001CCF1200E29D4C3
:104DB00012FA0EF201EB0451BDE8104058BF7047E3
:104DC000401C1CBFB2F1004F704700280CBF491CAB
:104DD00020F00100704712EB020E43EB030218BFF4
:104DE0004FF0010E4EEA4202ACF1200CDCF11E0E37
:104DF00054D943FA0CFE10EB0E0051F1FF31CCF107
:104E00001E0ED5D50EF1010E12FA0EFE404141EBF9
:104E1000010101EB445C5FEA5C5C10D910EBDE70D1
:104E200001EB045138BFBEF1004FBDE8104018BF80
:104E3000704700280CBF491C20F00100704730D299
:104E40004FEAD42C11F5001124F400641BD0B1FA00
:104E500081F20B3AA41AA41ED2F12003914030FA39
:104E600003F31943904001EBCC71002C01EB04518A
:104E7000BDE81040A8BF704701F1C0414FF00000ED
:104E800001F000417047B0FA80F310FA03F100D14D
:104E900010BDE41A173C4805C90AE4E701EB0451C8
:104EA00010BD491001EB0451BDE810404FEA30003D
:104EB00002E04FF0000170474A0008BF0042F8D0FE
:104EC000B2F5001F28BF704701F000414FF000000D
:104ED00070479EEA445F07D011EA5E0FBDE81040BC
:104EE00004BF002100207047BDE8104070B5FFF7F7
:104EF000E5FD00BF40DFF63E83F0004110467047FD
:104F00000000E0FF43004FEAD30C4FEA3C0C434063
:104F10001FBF40070CF1605113F0FE4F70471CF0AB
:104F2000006F03D100200CF0004170470CF00043EB
:104F300043EA507010B540EACC0000F03CFA00BFE4
:104F4000000000924FEA0001FFF706BE4FF000415B
:104F50004FF00000A1F500217047000090EA010F1A
:104F600048BF81F0004100F1B482421A3CBF801A70
:104F700089184FEAD0524FF07F4C1CEA410FA2EB48
:104F8000D15318BF9CEA026F00F03B804FF0004CF9
:104F90004CEA00204CEA012121FA03FC10EB0C0C36
:104FA0001ED202F1FF325FEA1C2040EBC25038BF34
:104FB00070471CF07F0F4FEA400C18BFBCF17F4FC9
:104FC00038BF7047C3F12003994008BF20F00100AB
:104FD000BCF17F4F38BF7047A0F1C04000F031BA3C
:104FE0004FEA3C00000A40EBC25028BF1CF0FF0F04
:104FF0004FEA400CE6D018BFBCF17F4F38BF704776
:10500000EAE79CEA026F05D010EA5C0F08BF00F0E7
:105010000040704710B500F0CEF900BF64FBBE3E03
:10502000401058BFC0F14040491058BFC1F1404145
:105030008142EFF3008070474FF47F0C1CEAD012DE
:105040001EBF1CEAD11392EA0C0F93EA0C0F00F07A
:10505000858090EA010F48BF42F4807240F4000C52
:1050600041F400002CF07F4120F07F4000B58142E8
:10507000A2EB03020FF2081CACEB504EC0F1000093
:105080009EF800E04FEA4E0E00FB0EFC38BF4900D0
:105090004FEA2C1C02F5FA020CFB0EF34FEACE1E6F
:1050A0004FEA112C4FEAC1210EEB635E42EB224224
:1050B0000EFB0CFC4FEA1C5300FB03114FEA112CB2
:1050C0004FEA01310EFB0CFC4FEADC4C00FB0C11EB
:1050D000C14228BF09184CEB03335DF804EB10EB19
:1050E000410143EBC250B2F57C0F38BF704729D560
:1050F00012F0F00F1CBF00F1C04000F000407047FC
:10510000008182838485868788898B8C8D8E8F91A0
:105110009293959697999A9C9D9FA0A2A3A5A7A8C4
:10512000AAACAEB0B2B3B5B7B9BCBEC0C2C5C7C9F0
:10513000CCCED1D4D7D9DCDFE2E6E9ECF0F3F7FA54
:10514000FE0000004FEA400C0CF1807CBCF17E4F69
:1051500028BF7047B0F1C04000F073B990EA010F6A
:105160000CEAD11348BF42F48072624538BF6345F0
:1051700007D213F47F0F16D080EA010000F0004040
:10518000704710B500F017F9097EFC3E00F005B835
:1051900080EA010000F00040704780EA010000F062
:1051A000004000F04EB912F47F0F04BF0248704770
:1051B00080EA010000F045B90000C07F41000B0EFD
:1051C000D3F19E0208D950F400034FEA032323FAD7
:1051D00002F048BF4042704710B500F0ECF800BF45
:1051E00049922480002070476FF0004282EA20003C
:1051F0007047000010F0004148BF4042B0FA80F311
:1052000010FA03F2C3F19D030BD051EAC35101EB35
:105210001220530638BF704700F1010008BF20F08C
:1052200001007047B0FA80F310FA03F2C3F19D0356
:105230000AD0D90501EB1220530638BF704700F1A0
:10524000010008BF20F001007047000050EA010C87
:1052500000F113801CF5000F58BFBCF5000F01D4FE
:105260008842704707D710F5000F58BF11F5000F9F
:1052700015D488427047894270471CF5000F04D549
:10528000BCF5000FF7D5814270474FF0807C1CEBD6
:10529000400F38BF1CEB410F01D28142704710B55F
:1052A00000F089F8922449004FF000504FF08051EF
:1052B000FFF7B6BE4FF47F0C1CEAD0121EBF1CEAEB
:1052C000D11392EA0C0F93EA0C0F00F0478090EA9A
:1052D000010F48BF42F480724FF0004C4CEA0020AE
:1052E0004CEA012102EB0302A0FB0113A2F500022C
:1052F000002918BF43F001035B0028BF4FEA3303C6
:1053000042EB22425FEA132C4CEBC2502EBFBCEBA7
:10531000436FB2F57C0F70474FEA036CBCF1004F4E
:1053200008BF20F00100B2F57C0F38BF70470BD5E5
:1053300082F0FF0212F5803FC8BF704700F1C04005
:10534000D8BF00F00040704700F5000C5FEA4C0C3D
:1053500048BF7047B0F1C04000F073B890EA010F49
:105360000CEAD11348BF42F48072624538BF6345EE
:1053700004D280EA010000F00040704710B500F050
:105380001AF800BF8900013E00F007B800F009B824
:105390005FEA410C5FEA1C6C08D080EA010000F073
:1053A00050B85FEA400C5FEA1C6CF6D14FF0004049
:1053B000A0F5800070470EF1020E2EF0030E5EF88D
:1053C000044B244204D44FEA4102B2F17F4F11D87A
:1053D0004FEA4003B3F17F4F0CD80ED14FEAD07C97
:1053E000B2F17F4F0CEB4C0C0CF1020C08BF4CEBF4
:1053F000D17C04E04FF0080C01E04FEAD17C0CEBCB
:105400004C0324FA03F404F00704B4F1040C06D2AC
:105410000EEB840CBDE810404CF0010C6047DFE857
:105420000CF0070802024FF00040A0F5800010BD0C
:105430000846420018BFD2F1807288BF00F00040D9
:1054400010BDFF2141EAD050C005704751EA000C61
:1054500000F113801CF5000F58BFBCF5000F01D4FC
:105460008142704707D711F5000F58BF10F5000FA4
:1054700015D481427047894270471CF5000F04D54E
:10548000BCF5000FF7D5884270474FF0807C1CEBCD
:10549000410F38BF1CEB400F01D28842704780EAB1
:1054A000010081EA000180EA0100FFF7F8BE80F008
:1054B000004090EA010F7FF558AD81F0004100F007
:1054C00008B8000090EA010F48BF81F000413FF5A5
:1054D0004CAD421A04D882F00042A0EB0200114405
:1054E0004FEAD0524FF07F4C1CEA410FA2EBD15350
:1054F00018BF9CEA026F4AD04FF0004C4CEA0020E3
:105500004CEA012121FA03FCB0EB0C0C0FD412F091
:10551000FE0F36D05FEA4C001DD5001240EBC250A2
:1055200038BF70471CF03F0F18BF70470BE0A2F167
:1055300001025FEA1C2040EBC25038BF70471CF0EC
:105540007F0F18BF7047C3F12003994014BF401E5E
:1055500020F00100704780084FEA122308BF70470F
:10556000B0FA80FCA2EB0C02CCF1280C60FA0CF033
:1055700093EA122F04BF00EBC25070474FEAC3708A
:105580007047130A5FEADC1008BF7047F6E79CEA31
:10559000026F04D010EA5C0F08BF0020704710B5FE
:1055A000FFF709FF40DFF63E81F000407047FAF751
:1055B00087BF000002400000000000A000000000C3
:1055C00005400000000000C8000000000C40000082
:1055D0000000409C00000000194000000020BCBEFC
:1055E0000000000034400000BFC91B8E0000000412
:1055F000B5400000504BCFD06607E2CF010000005D
:105600006C4100003E8251AADFEEA7340100000089
:10561000D9420000DCB5A0E23A301F97FFFFFFFF40
:10562000B4450000FD25A0C8E9A3C14FFFFFFFFF5F
:10563000FF3F00000000008000000000FF3F00006E
:1056400000000080000000008456000800000020D8
:105650009C0300006C010008A05700089C03002078
:1056600064130000D00100081C000000430000008B
:10567000F8FFFFFF0C0000000E0000000F0000000C
:105680002E000000A200016004A24A040BB0090130
:1056900002030406070809203116611A00062B02CE
:1056A0000406080001320103F116310131095110DD
:1056B0003103311841344104B2011A312091405173
:1056C0003082016132020112000252020F210A519E
:1056D00016410B412561175132720230810152008F
:1056E000152118320401152E31053107210342001E
:1056F000164204185112811A31205130711062047F
:1057000044257D320801310951103103311811153A
:1057100041185112811A31209140513086089B3234
:10572000100112000252100F210A5116410B41259F
:105730006117513272103081015200152118322048
:105740000119363105310721034200164220185154
:1057500012811A3120513071106220442985324063
:1057600001310951103103311811154118511281BD
:105770001A312091405130514429DD3280013109E4
:10578000511031033118111541185112811A31206D
:10579000914051305144095AC003000000000000FC
:040000050800022DC0
:00000001FF
